:0200000460009A
:100000004643464200000156000000000103030081
:1000100000000000000000000000000000000000E0
:1000200000000000000000000000000000000000D0
:1000300000000000000000000000000000000000C0
:1000400000000000010408000000000000000000A3
:100050000000200000000000000000000000000080
:100060000000000000000000000000000000000090
:100070000000000000000000000000000000000080
:10008000EB04180A063204260000000000000000FD
:10009000050404240000000000000000000000002F
:1000A0000000000000000000000000000000000050
:1000B0000604000000000000000000000000000036
:1000C0000000000000000000000000000000000030
:1000D00020041808000000000000000000000000DC
:1000E0000000000000000000000000000000000010
:1000F0000000000000000000000000000000000000
:10010000D8041808000000000000000000000000F3
:100110000204180804200000000000000000000095
:1001200000000000000000000000000000000000CF
:10013000600400000000000000000000000000005B
:1001400000000000000000000000000000000000AF
:10015000000000000000000000000000000000009F
:10016000000000000000000000000000000000008F
:10017000000000000000000000000000000000007F
:10018000000000000000000000000000000000006F
:10019000000000000000000000000000000000005F
:1001A000000000000000000000000000000000004F
:1001B000000000000000000000000000000000003F
:1001C000000100000010000001000000000000001D
:1001D000000001000000000000000000000000001E
:1001E000000000000000000000000000000000000F
:1001F00000000000000000000000000000000000FF
:10020000FFFFFFFFFFFFFFFFFFFFFFFFFFFFFFFFFE
:10021000FFFFFFFFFFFFFFFFFFFFFFFFFFFFFFFFEE
:10100000D100204321160060000000000000000015
:10101000201000600010006000C4006000000000AC
:101020000000006000D0000000000000FFFFFFFF94
:10103000FFFFFFFFFFFFFFFFFFFFFFFFFFFFFFFFC0
:10104000FFFFFFFFFFFFFFFFFFFFFFFFFFFFFFFFB0
:10105000FFFFFFFFFFFFFFFFFFFFFFFFFFFFFFFFA0
:10106000FFFFFFFFFFFFFFFFFFFFFFFFFFFFFFFF90
:10140000884207D0904205D251F8043B40F8043B93
:101410008242F9D8704700BF884204D2002340F8C6
:10142000043B8142FBD870472DE9884800F0CEF993
:101430000824604B604AC3F8544160496048FFF794
:10144000DFFF604A60496148FFF7DAFF60496148A1
:10145000FFF7E2FF604C4FF0E0214FF470000023F3
:101460005E4AC1F8880D44F823200133B02BFAD12D
:101470005B4B80215B4A03F8011B9342FBD14FF089
:10148000E0254C4E4FF08039DFF888B1DFF888A1B5
:101490004FF0FF31C5F8084D0027C6F80491C6F893
:1014A00000B1C6F8F490C6F8F0A0D5F8243DDFF8F6
:1014B0006C8143F4E0234C4AC5F8243DD8F81C3035
:1014C00023F07F0343F04003C8F81C30D8F82430E1
:1014D00023F07F0343F04003C8F824309166D166BF
:1014E0001167516700F07AF9404B4149A363414BC2
:1014F000E36363236B610323AF612B613E4BC5F84C
:10150000203DD5F8FC3D43F08073C5F8FC3D3B4BD6
:101510001A6842F001021A605B680B6000F0DAF9A9
:10152000C6F804913648C6F800B1C6F8F490C6F87B
:10153000F0A000F06DFBD8F86C10324B324A41F449
:101540004051C8F86C101F60C3F80871C3F81871D7
:10155000C3F82871C3F83871936BDB0708D442F6DF
:1015600015632A4951651365936B43F00103936337
:10157000254A274C936843F00113936000F00EFB5B
:1015800000F03EFB00F0D4F900F022F92368132BA1
:10159000FCD900F065FA2368B3F5967FFBD300F021
:1015A0001BF900F017F900F03BFB00F02DFB30BFFA
:1015B000FDE700BF00800D4048850000441E00602C
:1015C00000000000C01E002090A30060000000206A
:1015D000A02B0020C01E0020001C00207967000006
:1015E00000E400E0A0E400E000C00A402D7A000022
:1015F000042B0020317A000000002020001000E0C1
:101600008074D21A0040084000400D400000C056CF
:10161000082B00201B1018200C0D111300C00F40C8
:10162000074B4FF42A01074A07485A641864074ACF
:1016300099639546BFF34F8FBFF36F8FFFF7F4FEAB
:1016400000C00A40AFAAAAAA070020000000072095
:1016500043690A4A03EB011010B4037A084C02EB09
:101660000313D3E901321460C2681A6003690BB135
:1016700042691A605DF8044B704700BF1C120020DD
:1016800061F801004369027E03EB021292F808C080
:101690008C451CD01A7AFF2A19D0914210B5044605
:1016A00016D01A7EFF2A06D00121D3E90023126842
:1016B0001A4201D1217610BD064B0522204603EBCC
:1016C0000C135B681A60FFF7C3FF2176F3E77047DE
:1016D0000021EAE71C12002043690A4A03EB0110CB
:1016E00010B490F82830084C02EB0313D3E9013210
:1016F0001460C26A1A60036B0BB1426B1A605DF82A
:10170000044B70471C12002061F801004369427EBF
:1017100003EB021292F828C08C451ED093F82820C3
:10172000FF2A1AD0914210B5044617D093F83820FA
:10173000FF2A06D00121D3E9002312681A4201D101
:10174000617610BD064B0522204603EB0C135B6847
:101750001A60FFF7C1FF6176F3E770470021EAE7FF
:101760001C120020164942698B6B23F47C0343F45E
:10177000802370B58B630446124DD2E900130A68CA
:101780001A4303690A60022200211A610E4A196194
:101790009A6401225A629D624FF43035DD624FF047
:1017A00001159E6C1E6519629D651A61017EFFF729
:1017B0004FFF617E2046BDE87040FFF78DBF00BF40
:1017C00000C00F40B80B05053B372819704700BF14
:1017D000704700BF704700BF00BF704710B44FF0A4
:1017E000E023002110242B48C3F8941DC3F89C4D1E
:1017F0001124C3F8A00D2848C3F89C4D1224C3F847
:10180000A00D2648C3F89C4D254AC3F8A00D254CD1
:1018100042F015022448C3F89C4DC3F8A00D234C98
:101820002348C3F89C4DC3F8A00D224CC3F89C2D4F
:101830002148224AC3F8A04DC3F89C0DC3F8A02D3F
:1018400002F5A0221E4C0C321E48C3F89C4DC3F872
:10185000A02D1D4AC3F89C0D1C4CC3F8A02D0122DD
:101860001B48C3F89C4DC3F8A00DC3F8942DBFF3DB
:101870004F8FBFF36F8FC3F8501FBFF34F8FBFF36E
:101880006F8FD3F8142D5DF8044B42F44032C3F847
:10189000142D70473F0000102500080309001000B8
:1018A000A02B0020130020002100020714000020BC
:1018B00025000813090000101600202027000B1334
:1018C00017000040180000602F000B07190000707F
:1018D0002F000B13F0B4154A40274FF480314FF41A
:1018E00080564FF400554FF4404443F242001369D0
:1018F00013F0020F0ED113F4005F0FD013F4805FCA
:101900000ED0002BF3DA13F4803F0BD15B060BD51E
:10191000F0BC7047946151619061E8E75561E6E77A
:101920005661E4E79161E2E75761E0E700800D402E
:101930003F4A03203F49F3EE095AD2F880304FF076
:10194000000C9FED3D6A23F001039FED3C5A30B43B
:10195000C2F88030C2F89000D1F8E010384DCBB218
:10196000384C39482B6007EE903A0B0DC1F30B2130
:10197000F8EEE77A06EE903A07EE101A334BB8EE1F
:10198000C77A2160F8EEE66A314937EEC66A37EE6B
:10199000C55A76EEC76A77EEE57A26EE266AC3ED7B
:1019A000006A25EE265AD2F8803067EEA64AC0EDCE
:1019B000007AC6EE275A274885EE276AC4EEA76A42
:1019C00075EE875AFCEEE55A36EE076A15EE904A38
:1019D000BCEEC66A43EA045376EE877AC2F88030DA
:1019E00016EE103AD2F89041FCEEE77A01EA034194
:1019F000214317EE903AC2F89011C3F30B03D2F8CB
:101A000090110B431449C2F89031D2F8803043F062
:101A10000203C2F88030114B80F840C0C1F8403159
:101A20004FF0E023012230BCC3F80821704700BF0B
:101A300000810D4000441F400000AA420000B44253
:101A4000F42A0020F02A0020F82A0020FC2A002096
:101A50000000FF0F00E400E0001C0020F968000017
:101A6000314B40F6617210B5C3F8202140F20444B6
:101A700000F0D2F82D4A2E49D2F880302D4843F09C
:101A80000303C2F880302C4BC1F8604102681A424F
:101A900003D1D1F8A8319A071BD0254A4FF0004155
:101AA000244B5963D2F8403143F00203C2F840316D
:101AB000D2F840319B07FBD44FF400304FF0E021C7
:101AC0001C4B4FF00042C1F88C0219209A6300F0C1
:101AD000ABF8184A4FF08040154C002190630A2063
:101AE000164B11604FF42072C4F8A801184600F09C
:101AF0009FF84FF4800203464FF4810040F24311F7
:101B00001860C4F858311A640D4B0E4AC4F84811D5
:101B1000C3F804224FF0E0224FF400310123C2F851
:101B20000C11C4F8403110BD00800D4000C00F40C2
:101B300000002E4000900D40001C1E000000002000
:101B4000001C0020E16A000008B50E4B1B6E9B07CD
:101B500000D4FBBE72B60C4B00200C4AC3F8400107
:101B600003F160430A49A3F55F2311649D46BFF367
:101B70004F8F4FF400130748074ADB6902609B68E8
:101B8000984700BF00441F4000002E4000C00A409C
:101B90000300200000802020000012EB104BA0204A
:101BA000104AD96E41F4403110B4D96640F237641E
:101BB000D96E41F44071D96654649064936C1B06ED
:101BC000FCD4094A40F23761A02351649364936CBA
:101BD00013F08003FBD1054A13705DF8044B704786
:101BE00000C00F4000400C4000800C40492B0020FA
:101BF000F8B500BFF8BC08BC9E4670470000000066
:101C00005FF800F0ED8000005FF800F0ED7E00006E
:101C10005FF800F0A96100005FF800F05172000069
:101C20005FF800F0458400005FF800F09964000060
:101C30005FF800F0A18300000101000041530000A3
:081C4000A15B0000D57E00004D
:101C480070C00F40C0000000120000001300000028
:101C5800D0841F4001000000FF000000FF000000CA
:101C68000000000000000000130000001300000046
:101C7800CC841F4001000000FF000000FF000000AE
:101C880000000000000000001C0000007D5B000058
:101C980070C00F40000C000011000000110000008F
:101CA800E0841F4002000000240000001200000031
:101CB800E0841F4001000000100000001100000037
:101CC800DC841F4002000000250000001200000014
:101CD800DC841F40010000001E000000895B00003A
:101CE80080C00F4000000003190000001000000031
:101CF800E8841F4001000000FF000000FF00000012
:101D080000000000000000001800000010000000A3
:101D1800E4841F4001000000FF000000FF000000F5
:101D280000000000000000001F000000955B00009C
:101D3800160355005300420020005300650072004E
:101D4800690061006C00000018035400650065001C
:101D58006E00730079006400750069006E006F0002
:101D68000403090409026200030100C032080B00E1
:101D78000202020100090400000102020100052418
:101D880000100105240101010424020605240600AF
:101D9800010705820310001009040100020A00006F
:101DA80000070503024000000705840240000009FF
:101DB80004020002FF6AFF000705810240000107D4
:101DC800050102400001000009026200030100C091
:101DD80032080B000202020100090400000102029D
:101DE8000100052400100105240101010424020654
:101DF80005240600010705820310000509040100F7
:101E0800020A000000070503020002000705840219
:101E18000002000904020002FF6AC70007058102E8
:101E28000002010705010200020100000A06000283
:0C1E3800EF02014001000000000000006B
:101E4400000000000000000000000000000000008E
:101E5400000000000000000000000000000000007E
:101E6400F8B54FF084439D695A6915400DD0244F4D
:101E740001269D6195FAA5F4B4FA84F457F8243048
:101E840006FA04F49847A543F4D11E4B9D695A6998
:101E940015400DD01C4F01269D6195FAA5F4B4FAA6
:101EA40084F457F8243006FA04F49847A543F4D18F
:101EB400164B9D695A6915400DD0154F01269D6139
:101EC40095FAA5F4B4FA84F457F8243006FA04F425
:101ED4009847A543F4D10F4B9D695A6915400DD01D
:101EE4000D4F01269D6195FAA5F4B4FA84F457F8D0
:101EF400243006FA04F49847A543F4D1F8BD00BF92
:101F0400E4150020004000426416002000800042D6
:101F1400E416002000C00042641700200548064B68
:101F24001B1AD90F01EBA301491002D0034B03B1D3
:101F340018477047C01E0020C01E0020000000008B
:101F440008B5054B1BB105490548AFF30080BDE852
:101F54000840FFF7E3BF00BF00000000882700200F
:101F640000D00060224BD3F88820D2E90010D36857
:101F74000968006810B41842946801EA04012ED07C
:101F8400137C03F00303D9B943F008039908013B18
:101F940011740D2B0BD8DFE803F00D071C070A168C
:101FA4000D0D160A071C070D5369013B53615DF8BB
:101FB400044B704753695DF8044B01335361704718
:101FC40043F00403E0E753695DF8044B023B5361BB
:101FD400704753695DF8044B023353617047137CB7
:101FE40003F003030029D1D043F00403CEE700BF7C
:101FF400BC240020214B9A68D2E90010D3680968F8
:10200400006810B41842946801EA04012ED0137CCD
:1020140003F00303D9B943F008039908013B117491
:102024000D2B0BD8DFE803F00D071C070A160D0D66
:10203400160A071C070D5369013B53615DF8044BF5
:10204400704753695DF8044B01335361704743F0A3
:102054000403E0E753695DF8044B023B53617047A6
:1020640053695DF8044B023353617047137C03F0EA
:1020740003030029D1D043F00403CEE7BC2400209D
:10208400214BDA68D2E90010D3680968006810B4FB
:102094001842946801EA04012ED0137C03F0030370
:1020A400D9B943F008039908013B11740D2B0BD8DF
:1020B400DFE803F00D071C070A160D0D160A071CAE
:1020C400070D5369013B53615DF8044B7047536935
:1020D4005DF8044B01335361704743F00403E0E7B8
:1020E40053695DF8044B023B5361704753695DF8D3
:1020F400044B023353617047137C03F0030300293C
:10210400D1D043F00403CEE7BC240020214B1A694C
:10211400D2E90010D3680968006810B418429468C2
:1021240001EA04012ED0137C03F00303D9B943F070
:1021340008039908013B11740D2B0BD8DFE803F059
:102144000D071C070A160D0D160A071C070D536907
:10215400013B53615DF8044B704753695DF8044BD0
:1021640001335361704743F00403E0E753695DF8BA
:10217400044B023B5361704753695DF8044B0233CF
:1021840053617047137C03F003030029D1D043F05B
:102194000403CEE7BC240020214B5A69D2E9001085
:1021A400D3680968006810B41842946801EA04010D
:1021B4002ED0137C03F00303D9B943F00803990824
:1021C400013B11740D2B0BD8DFE803F00D071C073E
:1021D4000A160D0D160A071C070D5369013B5361BE
:1021E4005DF8044B704753695DF8044B0133536148
:1021F400704743F00403E0E753695DF8044B023B86
:102204005361704753695DF8044B0233536170475F
:10221400137C03F003030029D1D043F00403CEE779
:10222400BC240020214B9A69D2E90010D3680968C4
:10223400006810B41842946801EA04012ED0137C9B
:1022440003F00303D9B943F008039908013B11745F
:102254000D2B0BD8DFE803F00D071C070A160D0D34
:10226400160A071C070D5369013B53615DF8044BC3
:10227400704753695DF8044B01335361704743F071
:102284000403E0E753695DF8044B023B5361704774
:1022940053695DF8044B023353617047137C03F0B8
:1022A40003030029D1D043F00403CEE7BC2400206B
:1022B400214BDA69D2E90010D3680968006810B4C8
:1022C4001842946801EA04012ED0137C03F003033E
:1022D400D9B943F008039908013B11740D2B0BD8AD
:1022E400DFE803F00D071C070A160D0D160A071C7C
:1022F400070D5369013B53615DF8044B7047536903
:102304005DF8044B01335361704743F00403E0E785
:1023140053695DF8044B023B5361704753695DF8A0
:10232400044B023353617047137C03F00303002909
:10233400D1D043F00403CEE7BC240020214B1A6A19
:10234400D2E90010D3680968006810B41842946890
:1023540001EA04012ED0137C03F00303D9B943F03E
:1023640008039908013B11740D2B0BD8DFE803F027
:102374000D071C070A160D0D160A071C070D5369D5
:10238400013B53615DF8044B704753695DF8044B9E
:1023940001335361704743F00403E0E753695DF888
:1023A400044B023B5361704753695DF8044B02339D
:1023B40053617047137C03F003030029D1D043F029
:1023C4000403CEE7BC240020214B5A6AD2E9001052
:1023D400D3680968006810B41842946801EA0401DB
:1023E4002ED0137C03F00303D9B943F008039908F2
:1023F400013B11740D2B0BD8DFE803F00D071C070C
:102404000A160D0D160A071C070D5369013B53618B
:102414005DF8044B704753695DF8044B0133536115
:10242400704743F00403E0E753695DF8044B023B53
:102434005361704753695DF8044B0233536170472D
:10244400137C03F003030029D1D043F00403CEE747
:10245400BC240020214B9A6AD2E90010D368096891
:10246400006810B41842946801EA04012ED0137C69
:1024740003F00303D9B943F008039908013B11742D
:102484000D2B0BD8DFE803F00D071C070A160D0D02
:10249400160A071C070D5369013B53615DF8044B91
:1024A400704753695DF8044B01335361704743F03F
:1024B4000403E0E753695DF8044B023B5361704742
:1024C40053695DF8044B023353617047137C03F086
:1024D40003030029D1D043F00403CEE7BC24002039
:1024E400214BDA6AD2E90010D3680968006810B495
:1024F4001842946801EA04012ED0137C03F003030C
:10250400D9B943F008039908013B11740D2B0BD87A
:10251400DFE803F00D071C070A160D0D160A071C49
:10252400070D5369013B53615DF8044B70475369D0
:102534005DF8044B01335361704743F00403E0E753
:1025440053695DF8044B023B5361704753695DF86E
:10255400044B023353617047137C03F003030029D7
:10256400D1D043F00403CEE7BC240020214B1A6BE6
:10257400D2E90010D3680968006810B4184294685E
:1025840001EA04012ED0137C03F00303D9B943F00C
:1025940008039908013B11740D2B0BD8DFE803F0F5
:1025A4000D071C070A160D0D160A071C070D5369A3
:1025B400013B53615DF8044B704753695DF8044B6C
:1025C40001335361704743F00403E0E753695DF856
:1025D400044B023B5361704753695DF8044B02336B
:1025E40053617047137C03F003030029D1D043F0F7
:1025F4000403CEE7BC240020214B5A6BD2E900101F
:10260400D3680968006810B41842946801EA0401A8
:102614002ED0137C03F00303D9B943F008039908BF
:10262400013B11740D2B0BD8DFE803F00D071C07D9
:102634000A160D0D160A071C070D5369013B536159
:102644005DF8044B704753695DF8044B01335361E3
:10265400704743F00403E0E753695DF8044B023B21
:102664005361704753695DF8044B023353617047FB
:10267400137C03F003030029D1D043F00403CEE715
:10268400BC240020214B9A6BD2E90010D36809685E
:10269400006810B41842946801EA04012ED0137C37
:1026A40003F00303D9B943F008039908013B1174FB
:1026B4000D2B0BD8DFE803F00D071C070A160D0DD0
:1026C400160A071C070D5369013B53615DF8044B5F
:1026D400704753695DF8044B01335361704743F00D
:1026E4000403E0E753695DF8044B023B5361704710
:1026F40053695DF8044B023353617047137C03F054
:1027040003030029D1D043F00403CEE7BC24002006
:10271400214BDA6BD2E90010D3680968006810B461
:102724001842946801EA04012ED0137C03F00303D9
:10273400D9B943F008039908013B11740D2B0BD848
:10274400DFE803F00D071C070A160D0D160A071C17
:10275400070D5369013B53615DF8044B704753699E
:102764005DF8044B01335361704743F00403E0E721
:1027740053695DF8044B023B5361704753695DF83C
:10278400044B023353617047137C03F003030029A5
:10279400D1D043F00403CEE7BC240020214B1A6CB3
:1027A400D2E90010D3680968006810B4184294682C
:1027B40001EA04012ED0137C03F00303D9B943F0DA
:1027C40008039908013B11740D2B0BD8DFE803F0C3
:1027D4000D071C070A160D0D160A071C070D536971
:1027E400013B53615DF8044B704753695DF8044B3A
:1027F40001335361704743F00403E0E753695DF824
:10280400044B023B5361704753695DF8044B023338
:1028140053617047137C03F003030029D1D043F0C4
:102824000403CEE7BC240020214B5A6CD2E90010EB
:10283400D3680968006810B41842946801EA040176
:102844002ED0137C03F00303D9B943F0080399088D
:10285400013B11740D2B0BD8DFE803F00D071C07A7
:102864000A160D0D160A071C070D5369013B536127
:102874005DF8044B704753695DF8044B01335361B1
:10288400704743F00403E0E753695DF8044B023BEF
:102894005361704753695DF8044B023353617047C9
:1028A400137C03F003030029D1D043F00403CEE7E3
:1028B400BC240020224BD3F89820D2E90010D3681E
:1028C4000968006810B41842946801EA04012ED023
:1028D400137C03F00303D9B943F008039908013BBF
:1028E40011740D2B0BD8DFE803F00D071C070A1633
:1028F4000D0D160A071C070D5369013B53615DF862
:10290400044B704753695DF8044B013353617047BE
:1029140043F00403E0E753695DF8044B023B536161
:10292400704753695DF8044B023353617047137C5D
:1029340003F003030029D1D043F00403CEE700BF22
:10294400BC240020224BD3F89C20D2E90010D36889
:102954000968006810B41842946801EA04012ED092
:10296400137C03F00303D9B943F008039908013B2E
:1029740011740D2B0BD8DFE803F00D071C070A16A2
:102984000D0D160A071C070D5369013B53615DF8D1
:10299400044B704753695DF8044B0133536170472E
:1029A40043F00403E0E753695DF8044B023B5361D1
:1029B400704753695DF8044B023353617047137CCD
:1029C40003F003030029D1D043F00403CEE700BF92
:1029D400BC240020214B1A68D2E90010D36809688E
:1029E400006810B41842946801EA04012ED0137CE4
:1029F40003F00303D9B943F008039908013B1174A8
:102A04000D2B0BD8DFE803F00D071C070A160D0D7C
:102A1400160A071C070D5369013B53615DF8044B0B
:102A2400704753695DF8044B01335361704743F0B9
:102A34000403E0E753695DF8044B023B53617047BC
:102A440053695DF8044B023353617047137C03F000
:102A540003030029D1D043F00403CEE7BC240020B3
:102A6400214B5A68D2E90010D3680968006810B491
:102A74001842946801EA04012ED0137C03F0030386
:102A8400D9B943F008039908013B11740D2B0BD8F5
:102A9400DFE803F00D071C070A160D0D160A071CC4
:102AA400070D5369013B53615DF8044B704753694B
:102AB4005DF8044B01335361704743F00403E0E7CE
:102AC40053695DF8044B023B5361704753695DF8E9
:102AD400044B023353617047137C03F00303002952
:102AE400D1D043F00403CEE7BC240020214B9A6CE0
:102AF400D2E90010D3680968006810B418429468D9
:102B040001EA04012ED0137C03F00303D9B943F086
:102B140008039908013B11740D2B0BD8DFE803F06F
:102B24000D071C070A160D0D160A071C070D53691D
:102B3400013B53615DF8044B704753695DF8044BE6
:102B440001335361704743F00403E0E753695DF8D0
:102B5400044B023B5361704753695DF8044B0233E5
:102B640053617047137C03F003030029D1D043F071
:102B74000403CEE7BC240020214BDA6CD2E9001018
:102B8400D3680968006810B41842946801EA040123
:102B94002ED0137C03F00303D9B943F0080399083A
:102BA400013B11740D2B0BD8DFE803F00D071C0754
:102BB4000A160D0D160A071C070D5369013B5361D4
:102BC4005DF8044B704753695DF8044B013353615E
:102BD400704743F00403E0E753695DF8044B023B9C
:102BE4005361704753695DF8044B02335361704776
:102BF400137C03F003030029D1D043F00403CEE790
:102C0400BC240020214B1A6DD2E90010D368096856
:102C1400006810B41842946801EA04012ED0137CB1
:102C240003F00303D9B943F008039908013B117475
:102C34000D2B0BD8DFE803F00D071C070A160D0D4A
:102C4400160A071C070D5369013B53615DF8044BD9
:102C5400704753695DF8044B01335361704743F087
:102C64000403E0E753695DF8044B023B536170478A
:102C740053695DF8044B023353617047137C03F0CE
:102C840003030029D1D043F00403CEE7BC24002081
:102C9400214B5A6DD2E90010D3680968006810B45A
:102CA4001842946801EA04012ED0137C03F0030354
:102CB400D9B943F008039908013B11740D2B0BD8C3
:102CC400DFE803F00D071C070A160D0D160A071C92
:102CD400070D5369013B53615DF8044B7047536919
:102CE4005DF8044B01335361704743F00403E0E79C
:102CF40053695DF8044B023B5361704753695DF8B7
:102D0400044B023353617047137C03F0030300291F
:102D1400D1D043F00403CEE7BC240020214B9A6DAC
:102D2400D2E90010D3680968006810B418429468A6
:102D340001EA04012ED0137C03F00303D9B943F054
:102D440008039908013B11740D2B0BD8DFE803F03D
:102D54000D071C070A160D0D160A071C070D5369EB
:102D6400013B53615DF8044B704753695DF8044BB4
:102D740001335361704743F00403E0E753695DF89E
:102D8400044B023B5361704753695DF8044B0233B3
:102D940053617047137C03F003030029D1D043F03F
:102DA4000403CEE7BC240020214BDA6DD2E90010E5
:102DB400D3680968006810B41842946801EA0401F1
:102DC4002ED0137C03F00303D9B943F00803990808
:102DD400013B11740D2B0BD8DFE803F00D071C0722
:102DE4000A160D0D160A071C070D5369013B5361A2
:102DF4005DF8044B704753695DF8044B013353612C
:102E0400704743F00403E0E753695DF8044B023B69
:102E14005361704753695DF8044B02335361704743
:102E2400137C03F003030029D1D043F00403CEE75D
:102E3400BC240020214B1A6ED2E90010D368096823
:102E4400006810B41842946801EA04012ED0137C7F
:102E540003F00303D9B943F008039908013B117443
:102E64000D2B0BD8DFE803F00D071C070A160D0D18
:102E7400160A071C070D5369013B53615DF8044BA7
:102E8400704753695DF8044B01335361704743F055
:102E94000403E0E753695DF8044B023B5361704758
:102EA40053695DF8044B023353617047137C03F09C
:102EB40003030029D1D043F00403CEE7BC2400204F
:102EC400214B5A6ED2E90010D3680968006810B427
:102ED4001842946801EA04012ED0137C03F0030322
:102EE400D9B943F008039908013B11740D2B0BD891
:102EF400DFE803F00D071C070A160D0D160A071C60
:102F0400070D5369013B53615DF8044B70475369E6
:102F14005DF8044B01335361704743F00403E0E769
:102F240053695DF8044B023B5361704753695DF884
:102F3400044B023353617047137C03F003030029ED
:102F4400D1D043F00403CEE7BC240020214B9A6E79
:102F5400D2E90010D3680968006810B41842946874
:102F640001EA04012ED0137C03F00303D9B943F022
:102F740008039908013B11740D2B0BD8DFE803F00B
:102F84000D071C070A160D0D160A071C070D5369B9
:102F9400013B53615DF8044B704753695DF8044B82
:102FA40001335361704743F00403E0E753695DF86C
:102FB400044B023B5361704753695DF8044B023381
:102FC40053617047137C03F003030029D1D043F00D
:102FD4000403CEE7BC240020214BDA6ED2E90010B2
:102FE400D3680968006810B41842946801EA0401BF
:102FF4002ED0137C03F00303D9B943F008039908D6
:10300400013B11740D2B0BD8DFE803F00D071C07EF
:103014000A160D0D160A071C070D5369013B53616F
:103024005DF8044B704753695DF8044B01335361F9
:10303400704743F00403E0E753695DF8044B023B37
:103044005361704753695DF8044B02335361704711
:10305400137C03F003030029D1D043F00403CEE72B
:10306400BC240020214B1A6FD2E90010D3680968F0
:10307400006810B41842946801EA04012ED0137C4D
:1030840003F00303D9B943F008039908013B117411
:103094000D2B0BD8DFE803F00D071C070A160D0DE6
:1030A400160A071C070D5369013B53615DF8044B75
:1030B400704753695DF8044B01335361704743F023
:1030C4000403E0E753695DF8044B023B5361704726
:1030D40053695DF8044B023353617047137C03F06A
:1030E40003030029D1D043F00403CEE7BC2400201D
:1030F400214B5A6FD2E90010D3680968006810B4F4
:103104001842946801EA04012ED0137C03F00303EF
:10311400D9B943F008039908013B11740D2B0BD85E
:10312400DFE803F00D071C070A160D0D160A071C2D
:10313400070D5369013B53615DF8044B70475369B4
:103144005DF8044B01335361704743F00403E0E737
:1031540053695DF8044B023B5361704753695DF852
:10316400044B023353617047137C03F003030029BB
:10317400D1D043F00403CEE7BC240020214B9A6F46
:10318400D2E90010D3680968006810B41842946842
:1031940001EA04012ED0137C03F00303D9B943F0F0
:1031A40008039908013B11740D2B0BD8DFE803F0D9
:1031B4000D071C070A160D0D160A071C070D536987
:1031C400013B53615DF8044B704753695DF8044B50
:1031D40001335361704743F00403E0E753695DF83A
:1031E400044B023B5361704753695DF8044B02334F
:1031F40053617047137C03F003030029D1D043F0DB
:103204000403CEE7BC240020214BDA6FD2E900107E
:10321400D3680968006810B41842946801EA04018C
:103224002ED0137C03F00303D9B943F008039908A3
:10323400013B11740D2B0BD8DFE803F00D071C07BD
:103244000A160D0D160A071C070D5369013B53613D
:103254005DF8044B704753695DF8044B01335361C7
:10326400704743F00403E0E753695DF8044B023B05
:103274005361704753695DF8044B023353617047DF
:10328400137C03F003030029D1D043F00403CEE7F9
:10329400BC240020224BD3F88020D2E90010D3684C
:1032A4000968006810B41842946801EA04012ED039
:1032B400137C03F00303D9B943F008039908013BD5
:1032C40011740D2B0BD8DFE803F00D071C070A1649
:1032D4000D0D160A071C070D5369013B53615DF878
:1032E400044B704753695DF8044B013353617047D5
:1032F40043F00403E0E753695DF8044B023B536178
:10330400704753695DF8044B023353617047137C73
:1033140003F003030029D1D043F00403CEE700BF38
:10332400BC240020224BD3F88420D2E90010D368B7
:103334000968006810B41842946801EA04012ED0A8
:10334400137C03F00303D9B943F008039908013B44
:1033540011740D2B0BD8DFE803F00D071C070A16B8
:103364000D0D160A071C070D5369013B53615DF8E7
:10337400044B704753695DF8044B01335361704744
:1033840043F00403E0E753695DF8044B023B5361E7
:10339400704753695DF8044B023353617047137CE3
:1033A40003F003030029D1D043F00403CEE700BFA8
:1033B400BC240020224BD3F89020D2E90010D3681B
:1033C4000968006810B41842946801EA04012ED018
:1033D400137C03F00303D9B943F008039908013BB4
:1033E40011740D2B0BD8DFE803F00D071C070A1628
:1033F4000D0D160A071C070D5369013B53615DF857
:10340400044B704753695DF8044B013353617047B3
:1034140043F00403E0E753695DF8044B023B536156
:10342400704753695DF8044B023353617047137C52
:1034340003F003030029D1D043F00403CEE700BF17
:10344400BC240020224BD3F89420D2E90010D36886
:103454000968006810B41842946801EA04012ED087
:10346400137C03F00303D9B943F008039908013B23
:1034740011740D2B0BD8DFE803F00D071C070A1697
:103484000D0D160A071C070D5369013B53615DF8C6
:10349400044B704753695DF8044B01335361704723
:1034A40043F00403E0E753695DF8044B023B5361C6
:1034B400704753695DF8044B023353617047137CC2
:1034C40003F003030029D1D043F00403CEE700BF87
:1034D400BC240020224BD3F88C20D2E90010D368FE
:1034E4000968006810B41842946801EA04012ED0F7
:1034F400137C03F00303D9B943F008039908013B93
:1035040011740D2B0BD8DFE803F00D071C070A1606
:103514000D0D160A071C070D5369013B53615DF835
:10352400044B704753695DF8044B01335361704792
:1035340043F00403E0E753695DF8044B023B536135
:10354400704753695DF8044B023353617047137C31
:1035540003F003030029D1D043F00403CEE700BFF6
:10356400BC2400200B4610B5272800F29B81DFE81D
:1035740010F0900186017D0174016B016201590113
:10358400500147013E0135012C0123011A011101AB
:103594000801FF00F600ED00E400DB00D200C900E2
:1035A400C000B700AE00A5009C0093008A00810013
:1035B40078006E0064005A00500046003C0032005F
:1035C4002800B94C0422B9492720C4F89C3004F0DF
:1035D40077FF012010BDB44C0422B5492620C4F85D
:1035E400983004F06DFF012010BDAF4C0422B149A6
:1035F4002520C4F8943004F063FF012010BDAA4CC8
:103604000422AD492420C4F8903004F059FF01206D
:1036140010BDA54C0422A9492320C4F88C3004F021
:103624004FFF012010BDA04C0422A5492220C4F85C
:10363400883004F045FF012010BD9B4C0422A149B1
:103644002120C4F8843004F03BFF012010BD964CC7
:1036540004229D492020C4F8803004F031FF012069
:1036640010BD914C042299491F20E36704F028FF00
:10367400012010BD8C4C042295491E20A36704F040
:103684001FFF012010BD884C042292491D2063674E
:1036940004F016FF012010BD834C04228E491C2027
:1036A400236704F00DFF012010BD7F4C04228B49D9
:1036B4001B20E36604F004FF012010BD7A4C0422B1
:1036C40087491A20A36604F0FBFE012010BD764C46
:1036D400042284491920636604F0F2FE012010BD1F
:1036E400714C042280491820236604F0E9FE01206D
:1036F40010BD6D4C04227D491720E36504F0E0FE03
:10370400012010BD684C042279491620A36504F0F9
:10371400D7FE012010BD644C042276491520636550
:1037240004F0CEFE012010BD5F4C04227249142027
:10373400236504F0C5FE012010BD5B4C04226F49D3
:103744001320E36404F0BCFE012010BD564C042297
:103754006B491220A36404F0B3FE012010BD524C47
:10376400042268491120636404F0AAFE012010BDFC
:103774004D4C042264491020236404F0A1FE01206E
:1037840010BD494C042261490F20E36304F098FE04
:10379400012010BD444C04225D490E20A36304F0B3
:1037A4008FFE012010BD404C04225A490D20636352
:1037B40004F086FE012010BD3B4C042256490C2027
:1037C400236304F07DFE012010BD374C04225349CD
:1037D4000B20E36204F074FE012010BD324C04227D
:1037E4004F490A20A36204F06BFE012010BD2E4C49
:1037F40004224C490920636204F062FE012010BDDA
:10380400294C042248490820236204F059FE01206F
:1038140010BD254C042245490720E36104F050FE05
:10382400012010BD204C042241490620A36104F06C
:1038340047FE012010BD1C4C04223E490520636153
:1038440004F03EFE012010BD0422174C3A491046F4
:10385400236104F035FE012010BD134C04223749C6
:103864000320E36004F02CFE012010BD0E4C042262
:1038740033490220A36004F023FE012010BD044656
:10388400094804222F494360012004F019FE204610
:1038940010BD054C04222C490020236004F010FEC6
:1038A400012010BD002010BDBC240020050B000029
:1038B400750A000005160000751500009516000035
:1038C40025010000E514000055140000C913000090
:1038D4003D130000B11200002512000099110000F0
:1038E4000D11000081100000F50F0000690F0000A9
:1038F400DD0E0000510E0000C50D0000390D000062
:10390400AD0C0000E90900005D090000D1080000C9
:1039140045080000B90700002D070000A1060000BB
:103924001506000089050000FD0400007104000074
:10393400E503000059030000CD020000410200002D
:10394400B5010000210C0000950B000038B50D4DA9
:103954000D4806F005FD0D4C0021284604F0C0F981
:103964009FED0B0A284604F043F9204604F004FABC
:103974000021204604F026FA20460021BDE8384004
:1039840004F02ABAAC270020BC200020B02000207C
:103994000000C8447C2800F28780DFE810F08D0026
:1039A4008D008D008D0085008500850085008500D3
:1039B4008500190121011D01850085008500310163
:1039C4002D018500E900850085008500850025011D
:1039D400A900A500850029014501410185003D019B
:1039E4007D007D007D007D007D007D003901110199
:1039F4000D0169016501890089008900890095002C
:103A04009500950061015D01E10085008500DD0000
:103A1400D90085008500D500590185008500550130
:103A2400B500910091009D009D0091009100C90096
:103A3400D100CD00F1008500850085008500ED00F2
:103A440081001501B1008100810081008100AD0079
:103A54008500090185008500850085008500050134
:103A64000101FD00F900F5008500510185004D01BB
:103A74004901C500C100850085008500BD0099008D
:103A8400B9009900990085008500A100E500850032
:103A940085008500850035011921774805F046BE6B
:103AA4000621764805F042BE0C21754805F03EBE5D
:103AB4000C21744805F03ABE0621734805F036BE61
:103AC4000721724805F032BE0621714805F02EBE6A
:103AD4000721704805F02ABE0E216F4805F026BE66
:103AE4001B216E4805F022BE06216D4805F01EBE5E
:103AF40010216C4805F01ABE10216B4805F016BE63
:103B04000E216A4805F012BE1021694805F00EBE68
:103B14000F21684805F00ABE0C21674805F006BE6F
:103B24000721664805F002BE0721654805F0FEBD81
:103B34002121644805F0FABD1421634805F0F6BD5F
:103B44001721624805F0F2BD1521614805F0EEBD6C
:103B54001121604805F0EABD16215F4805F0E6BD75
:103B640011215E4805F0E2BD1B215D4805F0DEBD74
:103B74000F215C4805F0DABD0B215B4805F0D6BD8A
:103B840022215A4805F0D2BD0A21594805F0CEBD7C
:103B94001221584805F0CABD1D21574805F0C6BD7D
:103BA4001221564805F0C2BD2621554805F0BEBD78
:103BB4000621544805F0BABD2D21534805F0B6BD81
:103BC4001521524805F0B2BD0E21514805F0AEBD95
:103BD4000821504805F0AABD06214F4805F0A6BDAE
:103BE4000D214E4805F0A2BD09214D4805F09EBDAA
:103BF40007214C4805F09ABD06214B4805F096BDB7
:103C040006214A4805F092BD0721494805F08EBDBA
:103C14002F21484805F08ABD3021474805F086BD6C
:103C24002121464805F082BD3021454805F07EBD7E
:103C34002821444805F07ABD4621434805F076BD65
:103C44000B21424805F072BD1521414805F06EBDB7
:103C54000721404805F06ABD11213F4805F066BDC3
:103C640018213E4805F062BD07213D4805F05EBDC0
:103C740010213C4805F05ABDE40300201C06002036
:103C8400AC07002094040020DC020020680500201A
:103C9400A404002064070020700500206C070020A5
:103CA40048030020340300202406002014060020CA
:103CB400540500205C0700204C0700204407002026
:103CC4003C07002080050020BC050020A40500203E
:103CD4001C05002008050020F0040020DC0400205E
:103CE4008807002018030020F8050020D4050020D0
:103CF400B00600209C0600207C06002068060020F8
:103D0400400600203806002048040020300400202B
:103D140004060020E402002000030020F00200203A
:103D24002803002050030020100300200803002073
:103D3400A407002000040020B00300208C0300200E
:103D44005803002010070020C8060020BC060020ED
:103D54003C05002034050020C8040020AC040020E9
:103D64008C040020780400202DE9F0470B2138480A
:103D740005F0DCFC374801244FF00008364D05F00F
:103D8400D7FDDFF8F090334F04E004283DD0013430
:103D94007F2C2ED04FF0010AE6B2284606FA0AF329
:103DA400514685F830A185F82FA185F8A53003F098
:103DB40091FC0028E9D11A21284805F0B7FC0F2C02
:103DC400D04432D9002310222146384605F0BEFDE6
:103DD40003212348013405F0A9FC3046FFF7DAFD3E
:103DE4000121204805F0A2FC384605F0A1FD7F2CF6
:103DF400D0D1B8F1000F22D115211B4805F096FC53
:103E04001448BDE8F04705F093BD1B21484605F072
:103E14008DFC0F2C0ED9214600231022384605F0C4
:103E240095FD384605F084FDB1E751460F4805F08D
:103E34007DFCC7E751460D4805F078FCEBE705210A
:103E44000B4805F073FC0348BDE8F04705F070BD6E
:103E5400BC07002028150020BC200020C807002033
:103E6400E4070020E80700200808002018050020C7
:103E740020080020EC07002038B52E4B1B78002BBF
:103E84002AD12D4B197899B92C4B1B78002B39D199
:103E94002B4D2C4C2A6820682B4B02442B49B3FB36
:103EA400F2F307EE903AF8EEE77AC1ED007A38BD06
:103EB40041F27073264C27482360274A274C006838
:103EC4001F4D2749236012681E4C2860042009787E
:103ED400226004F07FFADDE71D4841F27075214C41
:103EE400056024681D48204A204B1D4912681B6840
:103EF400134D04600420134C09782A60236004F0F5
:103F040069FAC7E741F27073144A114813600360F9
:103F140044F620630A4D03200A4C2B60216004F010
:103F240059FA0F4B0420197881F0010104F052FA78
:103F3400B0E700BF612B002083180020682B00200D
:103F4400002700200427002040420F00D81500203D
:103F540034180020741500207C1500203C18002023
:103F6400712B0020401800207015002078150020C7
:103F740038B5104B1B78BBB90F4C2378A3B10F4D48
:103F84002B788BB90E4B1B7813B10E4B1B7863B98E
:103F94000121032004F01EFA0B4A012100201378AA
:103FA40020700B442970137038BD084B1B78002B0C
:103FB400F2D0EDE7622B00205F2B00204B2B00207A
:103FC4007B2B0020782B0020602B002086180020FB
:103FD40038B5524B1B7883B1514B524D524A1B6832
:103FE400296812685B1A934203D3504C2378DBB1DF
:103FF40038BD4F4A12689342FAD34C4C2378002BB5
:10400400F6D00021152004F0E5F900210D2004F07C
:10401400E1F9484B00221B782270002BE8D00620DF
:10402400BDE8384005F056BE04F0AAF9424B2860BA
:104034001B788BB90121152004F0CCF901210D2046
:1040440004F0C8F93B4B1B789BB93C4A0121136827
:1040540021700B44136038BD394B1A7E012A0FD9E5
:1040640072B65A6962B637480421026005F05EFBF5
:10407400E0E7354B00220620198805F08DFDE4E7C2
:1040840072B6D3E900109A68096800681140DA68CA
:1040940010423BD01A7C02F0030209B142F0040240
:1040A40042F008029108013A19740D2AD9D801A1E5
:1040B40051F822F0B5220000AD220000C522000014
:1040C400AD22000023220000BD220000B522000022
:1040D400B5220000BD22000023220000AD22000012
:1040E400C5220000AD220000B52200005A69013A41
:1040F4005A61B7E75A6901325A61B3E75A69023A19
:104104005A61AFE75A6902325A61ABE71A7C02F08E
:1041140003020029C6D042F00402C3E7642B002046
:10412400202B0020A8270020FC2600205E2B002046
:104134002C1800206C2B002071180020A0270020D0
:1041440068270020A427002054150020174B1B7853
:10415400012B07D0164B1748174A1B781178C35CFC
:10416400994205D9154A0020154B12881A807047C8
:104174005178994207D8917899420AD8D2789A42CC
:104184000DD8012070470F4A01200D4B12881A8068
:1041940070470D4A02200A4B12881A8070470B4A56
:1041A4000320074B12881A80704700BF791800203B
:1041B400572B0020C0290020DC150020681800209F
:1041C400661800206A1800206C1800206E18002061
:1041D4001E491F4A08681F4938B51F4B012408604F
:1041E40014701C70FFF7B2FF1C4B1D4A1B78107033
:1041F4004BB11C491C4A51F820501C4B1C491470EB
:1042040000220D601A701B4B1B4C1B5C1B4A83F075
:1042140001012370117053B1194A0121194C117015
:104224000022194B54F8204018491A700C601849A0
:10423400184B51F82010184C184A196054F82040B3
:10424400125C1749174B0C601A7038BD242B0020E0
:104254004F2B0020182B0020532B0020792B0020FB
:104264006F2B002060150020512B00204C2B0020C8
:104274005C15002020270020502B0020562B002006
:104284004E2B002088150020472B00208415002089
:10429400C4150020C0150020B0150020D41500203E
:1042A400AC15002073180020F8B5504B1B78002B78
:1042B40030D14F4A4F4E504D1068504C33782A68D5
:1042C4002178002968D14E490978994201D8002300
:1042D4003370824201D300232B604A4B1B78C3B155
:1042E400494C2378ABB1494D2B7893B9484B1B7893
:1042F4001BB1484B1B78002B72D10121032004F021
:1043040069F801232B70444A00211378217001338A
:104314001370F8BD384D374E354F2A6833783868F6
:1043240001333E49841A0132DBB2012A0C60337036
:104334002A6036D136494FF0000C304C36480978A3
:10434400227080F800C001B3324935480978002949
:1043540033D10178DFF8E0C09CF800C0BCF1000F55
:1043640011D0DFF8D8C01CF801C007EE90CADFF8FE
:10437400D0C0F8EEE77A9CED007A67EE877AFCEE1F
:10438400E77AC7ED007A013101702649097811B145
:104394002549097839B93868012B94D11A490B7029
:1043A40091E7164C8CE7214909780029F3D0FFF7EF
:1043B4000FFF337838682A6882E71D49DFF884C024
:1043C40091F800E001781CF801C0F445DFF864E0DE
:1043D4002CBF4FF0000C4FF0010C8EF800C0B9E771
:1043E400144B1B78002B8ED087E700BF8218002067
:1043F4004C180020632B0020F42600206D2B002095
:104404007A180020622B00205F2B00204B2B002009
:104414007B2B0020782B0020602B0020F826002026
:10442400572B00207A2B00207B180020642B0020BF
:104434008418002086180020652B0020C028002046
:10444400D8150020C02700202DE9F8436C4B6D4D92
:104454001B786D4F6D4C6BB12A683B686C499B1A95
:1044640001320B60012A23782A6003F10103DBB2D5
:10447400237047D0674EDFF8E8813378002B39D0BA
:104484002378012B21D0DFF8DC9199F8003003BBAD
:1044940098F80010604B22781B789A4201D30023CD
:1044A40023705E4B1B788B4201D833783BB92A6862
:1044B4003B689A4201D300232B60BDE8F8830022B5
:1044C400574B327001221A70F1E7DFF8989189F89E
:1044D40000300121022003F07DFF98F80010514BB9
:1044E400012201311A700023C9B289F8003088F81A
:1044F4000010CFE70121022003F06CFF494B012299
:104504001A70C0E74849434EDFF8548132700022E4
:10451400097888F80020002938D0444A1278F2B18A
:10452400434A444892F800C043490278895C614593
:10453400DFF80CC128BF00219CF800E038BF01213E
:10454400DFF824C18CF80010BEF1000F3DD1013218
:104554000270D9B9394A1278002A92D028E0384B2F
:10456400344A1B78002B46D0364B374993ED007AFA
:104574001378C95C013307EE901A1370F8EEE77AEA
:1045840067EE877AFCEEE77AC7ED007A2F4B0121BC
:1045940003201A682E4B1A6003F01CFF2D4B0420D5
:1045A400197803F017FF254B1B78002B3FF465AFF8
:1045B400294B1B78002B3FF460AF284B1B78002B52
:1045C4003FF45BAFFFF704FE57E79CF80010DFF8F9
:1045D40078C01CF802C0013207EE90CA0270194A72
:1045E400F8EEE77A92ED007A67EE877AFCEEE77AE6
:1045F400C7ED007AADE7137801331370C6E700BF47
:1046040082180020F426002044180020632B002088
:10461400F82600206D2B002080180020811800202F
:10462400582B00204A2B00207B2B0020782B0020C5
:1046340084180020572B0020C02700207A2B00204C
:10464400652B0020D8150020C02800203818002031
:1046540034180020712B00207B180020642B0020CC
:10466400602B00205F2B00208618002070B53F4B84
:1046740086B004460E4606AD0FCB05E90F003C4B51
:1046840001251D70E30B48D1A30B1AD0C4F34022BB
:104694000421384803F0E6FBC4F3802205213548A1
:1046A40003F0E0FBC4F3C0220621324803F0DAFB36
:1046B400C4F3003207212F4806B0BDE8704003F070
:1046C400D1BB620B29D006A9C4F382222A4801EB8C
:1046D40042021946019332F8102C03F0DBF906ABC1
:1046E400C4F3C21229462448C4F3021403EB420261
:1046F400019B32F8102C03F0CDF906AA019B02218C
:1047040002EB44041C4834F8102C03F0C3F9032EC4
:1047140029D8DFE806F02018100E184B00220620D6
:10472400198805F039FA032E1DD8DFE806F0140CB9
:1047340004020122BEE7012206210E4806B0BDE8AC
:10474400704003F08FBB012205210A4806B0BDE882
:10475400704003F087BB01220421064806B0BDE87F
:10476400704003F07FBB06B070BD00BF8002002024
:104774004C2B0020B0200020AC2700205415002032
:1047840010B5254B002482B01C70C30B03D1820BDF
:104794001BD1400B1CD1062005F09CFA00220421F9
:1047A4001E4803F05FFB002205211C4803F05AFB5E
:1047B40000220621194803F055FB0022072117485F
:1047C40002B0BDE8104003F04DBB04212246E7E7E8
:1047D400114613461248019203F05CF9019A012133
:1047E4000F48134603F056F9019A02210C48134668
:1047F40003F050F9019A0421084803F033FB019AAD
:104804000521064803F02EFB019A0621034803F014
:1048140029FB019AD2E700BF4C2B0020B0200020D6
:10482400AC2700207C4B1B7870B573B17B4B1A7896
:10483400002A00F08B807A4A7A487B491268006823
:104844000968121A8A4280F0A780784C23786BB1E9
:10485400774B1A78002A62D0714A724875491268F7
:1048640000680968121A8A4280F0878072490B78BE
:10487400FBB16C486A4A714B006812681B68121AD3
:104884009A4242D36E4D2D682B449A4242D22378E9
:10489400002B00F08A806B4B1B784BB16A4C0023D1
:1048A4006A4A24780B70147069496A4A0B70106064
:1048B40070BD664C237803B3594B66481D68664A3D
:1048C40003681268EB1A93425DD3614E3278002A72
:1048D40075D0624A12689342EAD3614B00221B8866
:1048E40032705807C3F3800100F190800F2003F069
:1048F40071FD2378013B237070BD554A117800295E
:10490400D6D0584913700B7070BD4D4800680344ED
:104914009A42CDD300234E4A0B70137070BD524D92
:104924002B78002BA2D0474E3378002B53D03C4A2F
:104934003C49126809683F4B521A4C491B68096884
:104944000B449A4292D300232B708FE7484B1B7879
:10495400002B3FF47AAF324A3248334B4549126850
:1049640000681B680968121A0B449A42FFF46DAF81
:104974003B4B1888FFF704FF67E700203A4A012100
:104984001870117072E7354A1268934290D3304E12
:104994003378002BA1D170BD374900223048097803
:1049A40000881A70FFF762FE4FE7274D284C0B7002
:1049B400264A29782370274B1170186070BD284B44
:1049C400012105601B8831705C0717D40F20BDE8F6
:1049D400704003F0FFBC224B16201B881B0706D433
:1049E40003F022FDB0FA80F0400930709FE703F035
:1049F4001BFD003818BF0120307098E70A461F4895
:104A040003F00301BDE8704003F02CBA03F0030186
:104A14001A4803F027FA6CE7792B0020512B002069
:104A2400242B0020182B002058150020502B002088
:104A34004E2B00204C150020532B00202018002062
:104A440084150020562B0020731800204D2B0020C5
:104A5400522B00201C2B0020AC150020C015002078
:104A6400661800204F2B0020472B002050150020F3
:104A74004C2B00205C1500206F2B0020B020002060
:104A840030B5334B85B0044604AD0FCB05E90F00B8
:104A9400002C47D014F0300FC4F3011232D114F0BB
:104AA4000C0F1146C4F3810236D0230903F004032A
:104AB40042EA030514F0030232D0240904F004048A
:104AC400144304AA0023234802EB4102194632F896
:104AD400102C02F0DFFF04AB01211E4803EB45025A
:104AE400002332F8102C02F0D5FF04AB0221194840
:104AF40003EB4402002332F8102C05B0BDE830402B
:104B040002F0C8BF230914F00C0F03F0040342EAB7
:104B14000301C4F38102C8D1154614F00302CCD1B9
:104B24001446CEE72146234622460A4802F0B2FF45
:104B3400234622460121074802F0ACFF23462246C1
:104B44000221044805B0BDE8304002F0A3BF00BF15
:104B540080020020AC27002008B50121152003F0B5
:104B640075FC01210D2003F071FC0121022003F0EA
:104B74006DFC0121032003F069FC0121042003F0F2
:104B840065FC01210F2003F061FC0121062003F0E4
:104B94005DFC2D4B1B78002B4AD003210A2003F027
:104BA40055FC0321162003F051FC0021152003F0CD
:104BB40011FC00210D2003F00DFC0021022003F064
:104BC40009FC0021032003F005FC00210F2003F061
:104BD40001FC0121182003F039FC0121052003F018
:104BE40035FC0121072003F031FC0121082003F0EA
:104BF4002DFC0121092003F029FC0021182003F0D9
:104C0400E9FB0021052003F0E5FB0021072003F068
:104C1400E1FB0021082003F0DDFB0021092003F063
:104C2400D9FB0A4B1B7813B1094B1B782BB908BD70
:104C340002210A2003F00AFCB3E7064B1878BDE80A
:104C44000840FFF71DBF00BF781800207B2B002011
:104C54007C2B00207D1800202DE9F843264D40F2DE
:104C6400EE28264803F0C0F9254C2E68254FDFF8BE
:104C7400C09005F073F82378002B2FD03B78DB0726
:104C84002CD52B68D9F800209B1A0E2B26D91E4848
:104C940002F0EAFA1D4B1B7823B172B61C4B0022BA
:104CA4005A6162B6FFF758FF1A4CFFF7E5F8FEF7B2
:104CB4004DFE194A0023194912782370012482F009
:104CC400010217480A701749174A0B7013700470D1
:104CD40003F056FB154B1860BDE8F8832B68227867
:104CE4009B1B2AB1B3F5FA6FD1D805F037F8C0E7AA
:104CF4004345FAD9CBE700BF082B00200065CD1D42
:104D0400752B0020742B0020A82000208718002079
:104D140068270020692B00207B2B002082180020AC
:104D240077180020542B0020552B0020102B002036
:104D3400302B002070B5244D0A2003F075FB234C62
:104D44002B78834202D0237813B970BD237853B1F2
:104D54000A2003F069FB2B7883F001039842F4D115
:104D64000023237070BD012219491A4E0A701A4992
:104D74001A480B701A4900780B701A4922700A708D
:104D840019490B7019490A6019490B7019490B70BC
:104D940019490B6019490B701949097881EA020C09
:104DA40086F800C0174E337008B1174B1A7011B152
:104DB400164B01221A70164B1B78002BC8D0154BCA
:104DC4001878FFF75DFEBEE7781800205B2B002003
:104DD40082180020562B002077180020792B002001
:104DE400552B0020542B0020572B0020281800207E
:104DF400632B0020602B0020F42600204D2B002084
:104E0400502B0020532B0020512B00204E2B002030
:104E14007C2B0020761800201A491B4A0B68126864
:104E2400934230B412D3194804787CB9184B1A78D9
:104E340052B1184A12783AB1174D012217491C7021
:104E44002B7802700A70BBB930BC704711480078E7
:104E54000028F9D00E4800780028F5D00B480078D7
:104E64000028F1D10E4800780028EDD101330D4817
:104E7400D21A0B600260E7E70B4B30BC1878FFF7DF
:104E8400FFBD00BF64270020842700208218002073
:104E940077180020692B00207C2B0020542B002045
:104EA400592B0020F826002076180020002103202A
:104EB40010B503F08FFA1949194A002309781278BA
:104EC40018489142037002D3174A12787AB9174AE4
:104ED400174B12781B689A4208D3164B1A782AB1DA
:104EE400154A117811B11549097831B910BD144A20
:104EF40011780029EBD01370E9E700211148124C16
:104F0400197001230078117023700028EED00F4B24
:104F1400BDE810401878FFF7B3BD00BF602B002038
:104F2400851800204B2B0020612B0020572B0020DC
:104F34002818002082180020542B0020692B002000
:104F44006D2B00207C2B0020552B00207C1800208A
:104F540070B5344D344C2B78B3B9344A3449236892
:104F640012680978934201D300232360314B1B68F4
:104F7400994208D32B7833B12F4B1A781AB12F4AA0
:104F84001278002A3DD170BD284E236832682C491E
:104F9400D01A0133012B0860236002D02449097818
:104FA400E0E7284A127842B1274A12782AB1274A00
:104FB400127812B1FFF70CF92368204A12781AB953
:104FC4001B4932680978CDE7214A194812782AB971
:104FD400326801780131C9B20170C3E71D491E4A24
:104FE40091ED007A0178525C07EE902AF8EEE77AA8
:104FF40067EE877AFCEEE77A17EE902AC6ED007A20
:10500400E8E70022154916481A70012309782A7026
:1050140003700029B7D0134BBDE870401878FFF730
:105024002FBD00BF82180020F4260020481800205D
:10503400572B002028180020542B0020692B002017
:10504400F82600207A2B00207B180020642B0020F7
:10505400652B0020D8150020C02800207C2B0020C0
:10506400552B00207C18002038B51B4B1A7802B948
:1050740038BD0024194A41F27075032021461C7082
:10508400156003F0A7F9164B0420197881F001018B
:1050940003F0A0F9134A144B12781B689A42E7D321
:1050A400124B1A78002AE3D0114A11780029DFD074
:1050B400104909780029DBD00F4D01200F491C70DD
:1050C4002B7814700870002BD2D00D4B1878BDE8E3
:1050D4003840FFF7D5BC00BF582B002034180020FF
:1050E400712B0020572B0020281800208218002044
:1050F400542B0020692B00207C2B0020552B0020F2
:105104007C18002038B50021022003F063F91C4B01
:105114001C4900241A780C7002B938BD1A4A41F2AD
:10512400707021461C701060032003F053F9174B74
:105134000420197881F0010103F04CF9144A154B4D
:1051440012781B689A42E8D3134B1A78002AE4D0E9
:10515400124A11780029E0D0114909780029DCD0DD
:10516400104D012010491C702B7814700870002B0E
:10517400D3D00E4B1878BDE83840FFF781BC00BF90
:10518400582B00204A2B002034180020712B0020BB
:10519400572B00202818002082180020542B0020B0
:1051A400692B00207C2B0020552B00207C1800202C
:1051B400174A184B12781B789A4221D3164B1A7847
:1051C400F2B1164800221649007809681A7088421C
:1051D40016D3144B197899B11349087880B1134840
:1051E400007868B112484FF0010C10B4114C1A70D9
:1051F40023780A7080F800C01BB95DF8044B70472F
:1052040070470D4B5DF8044B1878FFF739BC00BFAD
:10521400602B0020851800206D2B0020572B0020C8
:105224002818002082180020542B0020692B00200D
:10523400552B00207C2B00207C1800202DE9F04FFA
:10524400282183B0C34804F071FAC34804F070FB0A
:10525400C24B1B78002B40F0F285C14B1B78002B0E
:1052640040F0E085BF4B1B78002B40F0F1850A210C
:10527400BD4804F05BFABD4900230A220968B64818
:1052840004F064FB0121BA4804F050FAB949002340
:105294000A220968B04804F059FBAF4804F048FBFF
:1052A4000A21B54804F042FAB44900230A220968E5
:1052B400A94804F04BFB0121AD4804F037FAB0498A
:1052C40000230A220968A44804F040FBA24804F021
:1052D4002FFB2121AB4804F029FA9F4804F028FB56
:1052E4001921A94804F022FAA84900230A220968CE
:1052F400994804F02BFB984804F01AFB1621A448A3
:1053040004F014FA41F27071934804F005FB9248DA
:1053140004F00EFB19219F4804F008FA9E490A2262
:10532400002309688C4804F011FB8B4804F000FB4F
:1053340016219A4804F0FAF941F27071864804F093
:10534400EBFA854804F0F4FA1E21954804F0EEF9CE
:10535400944B954C0221D3ED007A94ED007AF8EE4B
:10536400677A7D48914D924E87EE870ADFF8A8B29E
:10537400DFF8A8A2DFF8A892DFF8A8828D4FB7EE75
:10538400C00A04F0F9FA744804F0D2FA27218A48D2
:1053940004F0CCF9704804F0CBFA1021874804F0EB
:1053A400C5F9874B94ED007A02211B786A4807EE11
:1053B400903AF8EEE77A87EE270AB7EEC00A04F0CF
:1053C400DBFA654804F0B4FA17217E4804F0AEF91C
:1053D4007D490A22002309785F4804F0B7FA5E4841
:1053E40004F0A6FA1621794804F0A0F9784B94ED5C
:1053F400007A0221D3ED007A5748F8EE677A87EEF7
:10540400870AB7EEC00A04F0B7FA534804F090FADA
:105414001221704804F08AF96F4B4F481B6885FBD2
:105424000321DB17C3EBA11104F076FA4A4804F018
:105434007FFA1F21694804F079F9694900230A2297
:105444000968454804F082FA434804F071FA1F21C0
:10545400644804F06BF964490A22002309683E4851
:1054640004F074FA3C4804F063FA19215F4804F02C
:105474005DF95F4B3848197804F04EFA364804F069
:1054840057FA29215B4804F051F9334804F050FAE3
:105494001B21594804F04AF9337894ED007A02212B
:1054A40007EE903A2C48F8EEE77A87EE270AB7EE33
:1054B400C00A04F061FA284804F03AFA22214F485D
:1054C40004F034F9337894ED006A022107EE103ABF
:1054D4004B4B2148B8EEC77A1B7807EE903AC6EEDC
:1054E400076AF8EEE77A87EEA60AB7EEC00A04F078
:1054F40043FA194804F01CFA4021424804F016F912
:10550400414B1548197804F007FA134804F010FACF
:1055140021213E4804F00AF93D4B94ED007A022122
:10552400D3ED007A0C48F8EE677A87EE870AB7EE77
:10553400C00A04F021FA084804F0FAF912212548B7
:1055440004F0F4F8334900230A220968A5FB010199
:105554006AE000BF2808002028150020612B0020E5
:1055640083180020682B0020A8080020341800208D
:10557400B408002000270020B80800203C180020B0
:1055840004270020C4080020E80800207415002027
:10559400040900201C0900207C1500203809002083
:1055A4005009002048180020D8150020D34D62105F
:1055B40080180020D41500207009002098090020CC
:1055C4007A180020AC09002085180020C4090020A6
:1055D4004C180020DC09002040180020F0090020AD
:1055E40070150020100A002078150020300A0020D1
:1055F400622B00204C0A0020780A0020940A002024
:1056040081180020B80A0020712B0020FC0A002019
:105614004418002038180020E015002060150020F0
:10562400C4150020B0150020BB48890904F08EF988
:10563400B94804F07DF92121B84804F077F8002333
:105644000A2244F62061B44804F080F9B24804F018
:105654006FF92121B24804F069F800230A22AE4808
:10566400194604F073F9AC4804F062F92721AD48F7
:1056740004F05CF8A84804F05BF91321AA4804F08C
:1056840055F8AA4BA448197804F046F9A24804F046
:105694004FF91221A64804F049F8A64900230A222A
:1056A40009689D4804F052F99B4804F041F910211F
:1056B400A14804F03BF8A14900230A22096896484E
:1056C40004F044F9944804F033F917219C4804F099
:1056D4002DF89C490A22002309688F4804F036F902
:1056E4008D4804F025F91521974804F01FF8974BCD
:1056F4008948197804F010F9874804F019F90D2144
:10570400934804F013F8934B8348197804F004F990
:10571400814804F00DF92E218F4804F007F88F4BCF
:105724007D48197804F0F8F87B4804F001F92E213B
:105734008B4803F0FBFF8B4B7748197804F0ECF8A7
:10574400754804F0F5F81B21874803F0EFFF8749FB
:105754000A2200230978704804F0F8F86E4804F02F
:10576400E7F82121824803F0E1FF824B6A48197867
:1057740004F0D2F8684804F0DBF81B217E4803F0FB
:10578400D5FF7E4900230A220978634804F0DEF835
:1057940001217B4803F0CAFF7A490A2200230978D1
:1057A4005D4804F0D3F80121774803F0BFFF5A485D
:1057B40004F0BEF83021754803F0B8FF564804F0F1
:1057C400B7F81821724803F0B1FF724B52481978A8
:1057D40004F0A2F8504804F0ABF810216E4803F02E
:1057E400A5FF6E4900230A2209784B4804F0AEF85D
:1057F400494804F09DF80F21694803F097FF69496F
:1058040000230A220978444804F0A0F8424804F02E
:105814008FF81121644803F089FF644900230A22A8
:1058240009783D4804F092F83B4804F081F82421BB
:105834005F4803F07BFF384804F07AF814215D4890
:1058440003F074FF5C4900230A220978324804F00B
:105854007DF8314804F06CF81521584803F066FFD0
:10586400574900230A220968A5FB01012A4889092E
:1058740004F06CF8284804F05BF81221514803F056
:1058840055FF51490A2200230968234804F05EF8B1
:10589400214804F04DF80C214C4803F047FF4C4BD1
:1058A4001D48197804F038F81B4804F041F81B210E
:1058B400484803F03BFF48490A2200230968164878
:1058C40004F044F8144804F033F82521434803F065
:1058D4002DFF114804F02CF81121414803F026FF54
:1058E400404B0D48197804F017F80B4804F020F8E1
:1058F40015213D4803F01AFF3C4B0748197804F082
:105904000BF8054804F014F82421394803F00EFF7D
:10591400014804F00DF86DE028150020200B00204C
:10592400440B0020680B0020900B00207B2B0020F0
:10593400A40B002030180020B80B0020842700207E
:10594400CC0B002028180020E40B00205C2B002046
:10595400FC0B0020592B00200C0C00207818002090
:105964003C0C0020782B00206C0C002084180020B4
:10597400880C0020652B0020AC0C00207F18002030
:10598400C80C00207E180020E8070020CC0C002062
:10599400000D00207C2B00201C0D00207D18002011
:1059A400300D002076180020400D00207C180020C7
:1059B400540D00207C0D002074180020940D00204C
:1059C400FC260020AC0D00202C180020C00D002067
:1059D4006C2B0020D00D002054150020EC0D00206D
:1059E400140E002087180020280E002071180020B3
:1059F400400E00200A21C64803F098FEC54BC64855
:105A0400197803F089FFC44803F092FF1F21C348AB
:105A140003F08CFEC24900230A220968BE48A5FB94
:105A240001510025890903F091FFBB4803F080FF71
:105A34001721BC4803F07AFEBB4900230A220968F7
:105A4400B54803F083FFB44803F072FF1A21B74846
:105A540003F06CFEB64900230A220968AE4803F03D
:105A640075FFAD4803F064FF1521B24803F05EFEF4
:105A7400B1490A2200230978A74803F067FFA64822
:105A840003F056FF1121AD4803F050FE0C21AC4841
:105A940003F04CFEA04803F04BFF1521A94803F086
:105AA40045FEA94B9C48197803F036FF9A4803F049
:105AB4003FFF2C21A54803F039FEA54B94ED007A55
:105AC4000221D3ED007A9448F8EE677A924C87EE7F
:105AD400870AB7EEC00A03F04FFF8F4803F028FF90
:105AE40020219C4803F022FE8B4803F021FF0E2165
:105AF400994803F01BFE994B8748197803F00CFF73
:105B0400854803F015FF1921954803F00FFE9549C8
:105B140000230A220968804803F018FF7E4803F036
:105B240007FF1C21904803F001FE90490A2200233C
:105B34000968794803F00AFF774803F0F9FE222147
:105B44008B4803F0F3FD744803F0F2FE16218948F4
:105B540003F0ECFD884B7048197803F0DDFE6E48C5
:105B640003F0E6FE1C21854803F0E0FD8449002390
:105B74000A220968684803F0E9FE674803F0D8FE82
:105B84001F21804803F0D2FD7F4900230A220968BF
:105B9400614803F0DBFE604803F0CAFE1F217B4826
:105BA40003F0C4FD7A4900230A2209685A4803F025
:105BB400CDFE594803F0BCFE1E21764803F0B6FD25
:105BC400554803F0B5FE0F21734803F0AFFD734948
:105BD40000230A220978504803F0B8FE4E4803F027
:105BE400A7FE1C216E4803F0A1FD6E4900230A2282
:105BF4000978494803F0AAFE474803F099FE6A4B26
:105C040001930C21694803F091FD0C216848EEB220
:105C140003F08CFD00230A222946204603F096FE59
:105C24000C21644803F082FD204603F081FE042128
:105C3400614803F07BFD022D00F0FF80032E00F08D
:105C4400FA80012E14BF5D4B5D4B1988204603F08A
:105C540063FE204603F06CFE12215A48013503F01E
:105C640065FD00230A221BF8011B204603F06EFE8B
:105C7400204603F05DFE1321534803F057FD002333
:105C84000A225AF8041B204603F060FE204603F063
:105C94004FFE12214D4803F049FD00230A2259F812
:105CA400041B204603F052FE204603F041FE15215A
:105CB400474803F03BFD00230A2258F8041B204602
:105CC40003F044FE204603F033FE1021414803F064
:105CD4002DFD00230A2217F8011B204603F036FE8F
:105CE400204603F025FE1A213B4803F01FFD0198CE
:105CF40000230A2250F8041B0190204603F026FEDC
:105D0400204603F015FE042D7FF47BAF66E000BF50
:105D1400680E00207A2B002028150020740E002025
:105D240020180020940E0020C0150020AC0E002086
:105D3400AC150020C80E002073180020E00E0020CF
:105D4400F40E0020040F00207B1800201C0F0020FC
:105D5400241800204C0F0020700F0020792B002005
:105D6400800F0020581500209C0F00205C15002097
:105D7400BC0F0020E00F0020502B0020F80F002063
:105D84004C15002018100020501500203810002059
:105D94008415002058100020781000207918002065
:105DA40088100020702B002088150020A8100020E7
:105DB400B8100020C8100020D81000206818002057
:105DC4006A180020E0100020F410002008110020C0
:105DD4001C110020341100204811002022212148E8
:105DE40003F0A4FC204803F0A3FD16211F4803F090
:105DF4009DFC1F4B1C48197803F08EFD1A4803F0D4
:105E040097FD22211B4803F091FC1B4900230A2221
:105E14000968154803F09AFD134803B0BDE8F04F34
:105E240003F086BD1A21154803F080FC0E4803F0E8
:105E34007FFDFFF71CBA124B07E7124B05E714214D
:105E4400114803F073FC084803F072FDFFF70FBA22
:105E54001F210E4803F06AFC034803F069FDFFF7B5
:105E640006BA00BF64110020281500208811002004
:105E7400482B0020A0110020801500206C08002071
:105E84006E1800206C180020540800208808002098
:105E94002DE9F041054C82B003F022FC207003F0A0
:105EA4001FFC034AC0B22378107003E05A2B002071
:105EB4005D2B0020FF2B00F21881DFE813F06B0448
:105EC40083037B036C034C033B0338033503260332
:105ED40021031E030F03690362030803EC02E602B5
:105EE400DE02D802CF02C602BE02A50244023C0270
:105EF40034022E0223021402F901EB01E5017705B5
:105F0400700569055F055505500543053F05C00447
:105F1400BD04BA04B204AA04A404810595041F05AF
:105F24000F050705F304DA04D104C80400013D0594
:105F34003A0531052805E001A005C701C401B701F0
:105F4400AC01A1018E018B058601830180017D01D5
:105F54007A015B01160116011601160116011601DC
:105F64001601160116011601160116011601160175
:105F74001601160116011601160116011601160165
:105F84001601160116011601160116011601160155
:105F94001601160116011601160116011601160145
:105FA4001601160116011601160116011601160135
:105FB4001601160116011601160116011601160125
:105FC4001601160116011601160116011601160115
:105FD4001601160116011601160116011601160105
:105FE40016011601160116011601160116011601F5
:105FF40016011601160116011601160116011601E5
:1060040016011601160116011601160116011601D4
:1060140016011601160116011601160116011601C4
:1060240016011601160116011601160116011601B4
:1060340016011601160116011601160116011601A4
:106044001601160116011601160116011601160194
:106054001601160116011601160116011601160184
:106064001601160116011601160116011601160174
:106074001601160116011601160116011601160164
:106084001601160116011601160116011601160154
:106094001601160116011601160116011601160144
:1060A4001601160116011601160116011601160134
:1060B400160116011601580172012E011901A64C90
:1060C4004FF4C845A5492268A54B05FB0022096881
:1060D400A448114422600260B3FBF1F307EE903A46
:1060E400A149F8EEE77AC1ED007A02B0BDE8F0818B
:1060F4009E4B002226281A809A7000F0E3852728F8
:1061040000F0CF85002800F0B485DA7004219748A8
:1061140002B0BDE8F04103F009BB0521944803F047
:1061240005FB0121934803F001FB0121924803F090
:10613400FDFA924A9248002311680A22A0FB010149
:106144009048890C03F002FC01218F4803F0EEFA19
:106154000B218E4803F0EAFA01218B4803F0E6FA9A
:1061640008218B4803F0E2FA01218A48D0E70C2188
:106174008948CDE785B20028B7D0002401210F203B
:1061840002F028F9962002F0A7F8013400210F202C
:1061940002F020F9962002F09FF8A3B2AB42EDD3AF
:1061A400A3E76828A1D14FF0E0237C4AC3F80C2D63
:1061B4009BE77B4B187098E77A4B187095E77A4BFE
:1061C400187092E7794B18708FE7A0F10100784BB3
:1061D400B0FA80F04009187087E7764B76491B784F
:1061E400764CC8540B784878237003448A78C9786D
:1061F400DBB21A446370D3B25A18A370E27074E726
:106204006C4B1B78032B3FF670AFDFE813F0BC0434
:10621400B404AC04A404674B1B78032B3FF665AFAE
:10622400DFE813F092048B0484041C04012800F0BA
:106234004485022800F03C8500287FF456AF4FF4D3
:1062440080715F4864E75B4B18704EE75D4B5E4AB4
:106254001B781070002B7FF448AF584B5B4C034401
:106264005B4F04F5807613F8015C2A46002138461A
:1062740001F0EEF804F8010FA642F6D135E702B0BA
:10628400BDE8F041FDF770BD6423524A00FB03F3FF
:1062940013602AE70128504B0CBF012200221A7018
:1062A4003FF423AF062002B0BDE8F04103F012BD75
:1062B400A0F10101494B4A4AB1FA81F11B7849091D
:1062C400117053B9474B1B783BB9474B1B78002BD4
:1062D4003FF40BAF411E18BF0121042002B0BDE8FA
:1062E400F04102F077B80128404B4FF00A000BBF91
:1062F40001220022032102211A7002B0BDE8F041FC
:1063040002F0A4B801283A4B0CBF012200221A70F3
:106314007FF4EBAE374B1870E7E66423364A00FB94
:1063240003F31360E1E6A0F10100344BB0FA80F00E
:1063340040091870D9E6A0F10100314BB0FA80F0A1
:1063440040091870D1E6A0F101002E4BB0FA80F09C
:1063540040091870C9E600BF70150020042700200A
:1063640040420F0000270020D815002008270020F5
:10637400A402002098060020AC020020241500206E
:1063840083DE1B4328150020A80C0020B002002047
:10639400BC020020C8020020CC0200200400FA0540
:1063A4006B2B00207C180020761800207D1800201C
:1063B4007C2B0020702B0020E0150020DC15002031
:1063C400C02700207B2B002079180020BF29002043
:1063D400A820002058150020792B0020612B0020D4
:1063E400712B002083180020682B002078180020CF
:1063F400592B00205C2B0020541500206C2B00200E
:106404007A2B0020871800200128A44BA44C0CBF31
:10641400012200221B78A348A349E2544FF0000351
:1064240002700B707FF461AEA04CA148A149A24A4E
:10643400237003700B70137057E6984B00249F4A27
:106444009F491B780C70D0544FE6944B00EB8000AE
:106454009C4A1978400042F8210046E68F4B00EB35
:106464008000994A1978400042F821003DE66423EF
:10647400964A00FB03F3136037E6A0F10100944B46
:10648400B0FA80F0400918702FE692490022924B2E
:1064940008601A7029E60128904B0CBF01220022E3
:1064A4001A708F4B8F4A40F0768300211B7811704D
:1064B400002B00F077838C4B1B78042B00F2728343
:1064C400DFE813F06D0370037503980393034FF42F
:1064D4007A73864A00FB03F3136006E607EE900A1C
:1064E400834A844BF8EEE77A92ED007A67EE877A76
:1064F400FCEEE77AC3ED007AF7E57F4B1870F4E51C
:1065040002B0BDE8F041FEF799BE07EE900A784A62
:106514007A4BF8EEE77A92ED007A67EE877AFCEE32
:10652400E77AC3ED007AE0E5754B1870DDE5754B4D
:106534001870DAE5744B1B78002B00F06E83734BF4
:106544001A7E012A40F2F48372B65B6962B670481F
:1065540004210360DCE507EE900A654A6D490023D7
:10656400F8EEE77A92ED007A08606B4A67EE877A74
:106574006A4859490360FCEEE77A0B70C2ED007A71
:10658400B3E54FF47A73664A00FB03F31360ACE59A
:10659400644B1870A9E5002840F03183624C012156
:1065A400624A634B20701170187002B0BDE8F0416C
:1065B400FDF762BC5F4B6049604A0870B3FBF0F3BF
:1065C400136092E55E4C01265E4800235E49067026
:1065D40025685E480C6805605D48DFF8C880046083
:1065E4005C4898F8002003705B4882EA06045B4923
:1065F40003705B480978036031480370594804709C
:10660400594803702848037058480370002940F023
:106614000F8242B10023254C25482649264A23707F
:1066240003700B701370384B1B7843B172B6374A42
:106634000023536162B636494D4A0B601360274B01
:106644001B78002B00F0EE82002334480122324CE8
:10665400036021484749037047482468027047484B
:1066640009780370464803701E480370454B46483A
:106674001A700460002940F03A83444B1B78002BC5
:1066840040F04383164B1B78002B3FF42EAD404B58
:10669400187802B0BDE8F041FEF7F2B9702B002083
:1066A40020270020502B0020532B0020512B0020AA
:1066B4004E2B00204C2B0020472B0020D41500200B
:1066C4004D2B0020B0150020C415002020180020F8
:1066D4005C2B002028180020572B00207B2B002047
:1066E4007C2B0020821800206B2B002040180020F7
:1066F400D815002044180020801800204C180020D1
:10670400851800207A1800208718002068270020A8
:10671400A4270020301800208427002064270020AC
:106724003818002081180020612B002083180020D5
:10673400682B002040420F0074180020FC26002023
:10674400202B0020642B0020242B0020A8270020CD
:106754000C270020632B0020602B00207A2B0020C4
:10676400F4260020562B00204F2B0020522B002013
:10677400A0270020782B002077180020542B00201D
:10678400552B0020692B0020F8260020652B0020C3
:106794007D180020B54B0021B548B64A1B7801701E
:1067A4001170002B40F05682B34B1B78002B40F045
:1067B4004C82B24B1B78002B00F00282B04A0023BB
:1067C400B048B149127803700B70002A00F0F881C8
:1067D400AE4B1B78042B00F2F381DFE813F0F801D1
:1067E400F1010102FC01ED0107EE900AA84AA94B50
:1067F400F8EEE77A92ED007A67EE877AFCEEE77AB4
:10680400C3ED007A71E46423A34A00FB03F313602D
:106814006BE4A0F10100A14BB0FA80F040091870BC
:1068240063E4A0F101009E4BB0FA80F040091870B7
:106834005BE49C4B187058E49B4B187055E4A0F132
:1068440001009A4BB0FA80F0400918704DE46422BC
:106854009749984B984C00FB02F20968974838E432
:1068640064229649934B00FB02F2954C09689048C8
:106874002FE494490022864D0B6895ED007A03EBD2
:1068840000239148914C07EE903A02609048F8EE4C
:10689400677A0B60027067EE877AFCEEE77AC4EDE4
:1068A400007A22E400028B4B794A07EE900AD2ED7B
:1068B400006AB8EEE77AD3ED007AF8EE677AE7EE8D
:1068C400267AFCEEE77AC3ED007A0EE4824A4FF4AE
:1068D400C841136801FB0033136006E407EE900A15
:1068E4006B4A7C4BF8EEE77A92ED007A67EE877A92
:1068F400FCEEE77AC3ED007AFFF7F7BBA0F10100E5
:10690400764BB0FA80F040091870FFF7EEBBA0F1A7
:106914000100734BB0FA80F040091870FFF7E5BB33
:10692400654C4FF4C84522686149624B05FB00225F
:1069340093E7634CFFF7C4BB6A4CF2E76A4B1870E9
:10694400FFF7D3BB0128694B0CBF012200221A7048
:106954007FF4CBAB664B00221A70FFF7C6BB6422F0
:106964005349544B5F4C76E764225449514B00FB26
:1069740002F2604C09684E48FFF7ABBB5E496423E2
:106984005E4A097800FB03F342F82130FFF7ADBB00
:1069940064235B4A00FB03F31360FFF7A6BB642385
:1069A400584A00FB03F31360FFF79FBB524964236B
:1069B400554A097800FB03F342F82130FFF795BBF1
:1069C400524A0024424913680C7003EB00231360FD
:1069D400FFF78BBB00244E4DE1B20122284614443C
:1069E400019101F03FFAFA2001F076FC00220199AE
:1069F400284601F037FA082CEED1FFF776BB0025C4
:106A0400444E4FF470642246A4F580740023294652
:106A14003046A4B201F03EF81E2001F05DFCB4F54E
:106A24007F4FF0D10135EDB2032DEAD1FFF75DBB05
:106A3400394A3A4B12783A4C13443A4D04F580776C
:106A440013F8016C32460021284600F001FD04F8D9
:106A5400010FBC42F6D198F80020DAE5324A1378E7
:106A640003EB00231380FFF740BB00BF682B00201B
:106A7400642B00206D2B0020721800207B2B00203B
:106A84007C2B002082180020692B00206B2B002017
:106A9400D8150020481800200C270020482B00207F
:106AA400711800207E1800207F180020652B00201C
:106AB4000027002040420F007C15002004270020FE
:106AC400741500203018002064270020842700203B
:106AD400572B002024180020201800207B180020A9
:106AE400622B00207815002084180020782B0020C9
:106AF4008618002070150020702B002088150020B7
:106B0400501500204C150020601500202818002086
:106B1400B0200020AC27002079180020DC150020CC
:106B2400BF290020A82000206E180020AF4A137847
:106B340003EB00231380FFF7D8BAAD4A137803EBB5
:106B440000231380FFF7D1BAAA4A137803EB00237A
:106B54001380FFF7CABAA84A138823F0FF0303443B
:106B64001380FFF7C2BAA14A138823F0FF0303443A
:106B74001380FFF7BABA9E4A138823F0FF03034435
:106B84001380FFF7B2BA9B4A138823F0FF03034430
:106B94001380FFF7AABA01211B78117013B10020EA
:106BA400FDF76EFF954B00221A70FFF79EBA944BC7
:106BB4001878FDF765FFF5E7924B1878FDF760FF4D
:106BC400914B1B78002B3FF490AAFFF76BBB00207E
:106BD400FDF756FFF4E78D4B1878FDF751FFEFE70B
:106BE400874B1878FDF74CFFEAE7864B1878FDF7DA
:106BF40047FFD7E7854B1878FDF742FFD2E7012816
:106C04006DD002287FF4D1AC0023814C814801214E
:106C1400814A237003701170C7E480480421036023
:106C2400FFF776BA7B4A01247D487E4912780470C6
:106C34000B7062B37C4A7D4B12681A607C4B1B78E4
