:0200000460009A
:100000004643464200000156000000000103030081
:1000100000000000000000000000000000000000E0
:1000200000000000000000000000000000000000D0
:1000300000000000000000000000000000000000C0
:1000400000000000010408000000000000000000A3
:100050000000200000000000000000000000000080
:100060000000000000000000000000000000000090
:100070000000000000000000000000000000000080
:10008000EB04180A063204260000000000000000FD
:10009000050404240000000000000000000000002F
:1000A0000000000000000000000000000000000050
:1000B0000604000000000000000000000000000036
:1000C0000000000000000000000000000000000030
:1000D00020041808000000000000000000000000DC
:1000E0000000000000000000000000000000000010
:1000F0000000000000000000000000000000000000
:10010000D8041808000000000000000000000000F3
:100110000204180804200000000000000000000095
:1001200000000000000000000000000000000000CF
:10013000600400000000000000000000000000005B
:1001400000000000000000000000000000000000AF
:10015000000000000000000000000000000000009F
:10016000000000000000000000000000000000008F
:10017000000000000000000000000000000000007F
:10018000000000000000000000000000000000006F
:10019000000000000000000000000000000000005F
:1001A000000000000000000000000000000000004F
:1001B000000000000000000000000000000000003F
:1001C000000100000010000001000000000000001D
:1001D000000001000000000000000000000000001E
:1001E000000000000000000000000000000000000F
:1001F00000000000000000000000000000000000FF
:10020000FFFFFFFFFFFFFFFFFFFFFFFFFFFFFFFFFE
:10021000FFFFFFFFFFFFFFFFFFFFFFFFFFFFFFFFEE
:10100000D1002043491600600000000000000000ED
:10101000201000600010006000CC006000000000A4
:101020000000006000D8000000000000FFFFFFFF8C
:10103000FFFFFFFFFFFFFFFFFFFFFFFFFFFFFFFFC0
:10104000FFFFFFFFFFFFFFFFFFFFFFFFFFFFFFFFB0
:10105000FFFFFFFFFFFFFFFFFFFFFFFFFFFFFFFFA0
:10106000FFFFFFFFFFFFFFFFFFFFFFFFFFFFFFFF90
:10140000814205D051F8043B40F8043B8242F9D8B0
:10141000704700BF044A05494FF0000342F8043BFF
:101420009142FBD8704700BFC0220020402D002011
:101430002DE98848BFF34F8F00BF00BF00BF00BF3A
:1014400000F0D4F9674B0822C3F8542100BF00BF55
:1014500000BF00BF00BF00BF00BF00BF00BF00BF94
:1014600000BF00BF00BF00BF00BF00BF5E4A5F49B2
:101470005F48FFF7C5FF5F4A5F496048FFF7C0FF5D
:101480005F4CFFF7C7FF4FF470004FF0E0210023DF
:101490005C4AC1F8880D44F823200133B02BFAD1FF
:1014A000594B8021594A03F8011B9342FBD14FF05D
:1014B000E0254C4E4FF08039DFF880B1DFF880A195
:1014C0004FF0FF31C5F8084D0027C6F80491C6F863
:1014D00000B1C6F8F490C6F8F0A0D5F8243DDFF8C6
:1014E000648143F4E0234A4AC5F8243DD8F81C300F
:1014F00023F07F0343F04003C8F81C30D8F82430B1
:1015000023F07F0343F04003C8F824309166D1668E
:101510001167516700F072F93E4B3F49A3633F4B9F
:10152000E36363236B610323AF612B613C4BC5F81D
:10153000203DD5F8FC3D43F08073C5F8FC3D394BA8
:101540001A6842F001021A605B680B6000F0DEF975
:10155000C6F804913448C6F800B1C6F8F490C6F84D
:10156000F0A000F081FBD8F86C10304B304A41F409
:101570004051C8F86C101F60C3F80871C3F81871A7
:10158000C3F82871C3F83871936BDB0708D442F6AF
:101590001563284951651365936B43F00103936309
:1015A000234A254C936843F00113936000F012FB2B
:1015B00000F056FB00F0D8F900F01AF92368132B5D
:1015C000FCD900F069FA2368B3F5967FFBD300F0ED
:1015D00013F900F00FF900F02FFB00F035FB30BFDE
:1015E000FDE700BF00800D4078880000781E006095
:1015F00000000000C0220020F4A6006000000020CF
:10160000002000205D69000000E400E0A0E400E0AC
:1016100000C00A40317C0000882C0020357C00008E
:1016200000002020001000E08074D21A0040084022
:1016300000400D400000C0568C2C00201B101820CC
:101640000C0D111300C00F40054B4FF42A01054A41
:1016500005485A641864054A99639546FFF7E8FE01
:1016600000C00A40AFAAAAAA070020000000072075
:1016700043690A4A03EB011010B4037A084C02EBE9
:101680000313D3E901321460C2681A6003690BB115
:1016900042691A605DF8044B704700BF7412002065
:1016A00061F801004369027E03EB021292F808C060
:1016B0008C451CD01A7AFF2A19D0914210B50446E5
:1016C00016D01A7EFF2A06D00121D3E90023126822
:1016D0001A4201D1217610BD064B0522204603EBAC
:1016E0000C135B681A60FFF7C3FF2176F3E77047BE
:1016F0000021EAE77412002043690A4A03EB011053
:1017000010B490F82830084C02EB0313D3E90132EF
:101710001460C26A1A60036B0BB1426B1A605DF809
:10172000044B70477412002061F801004369427E47
:1017300003EB021292F828C08C451ED093F82820A3
:10174000FF2A1AD0914210B5044617D093F83820DA
:10175000FF2A06D00121D3E9002312681A4201D1E1
:10176000617610BD064B0522204603EB0C135B6827
:101770001A60FFF7C1FF6176F3E770470021EAE7DF
:1017800074120020164942698B6B23F47C0343F4E6
:10179000802370B58B630446124DD2E900130A68AA
:1017A0001A4303690A60022200211A610E4A196174
:1017B0009A6401225A629D624FF43035DD624FF027
:1017C00001159E6C1E6519629D651A61017EFFF709
:1017D0004FFF617E2046BDE87040FFF78DBF00BF20
:1017E00000C00F40B80B05053B372819704700BFF4
:1017F000704700BF704700BF00BF704710B44FF084
:10180000E023002110243148C3F8941DC3F89C4DF7
:101810001124C3F8A00D2E48C3F89C4D1224C3F820
:10182000A00D2C48C3F89C4D2B4AC3F8A00D2B4C9F
:1018300042F015022A48C3F89C4DC3F8A00D294C6C
:101840002948C3F89C4DC3F8A00D284CC3F89C2D23
:101850002748284AC3F8A04DC3F89C0DC3F8A02D13
:1018600002F5A022244C0C322448C3F89C4DC3F846
:10187000A02D234AC3F89C0D224CC3F8A02D02F1E1
:101880004062C3F89C4D2048C3F8A02D0C32C3F829
:101890009C0DC3F8A02D00BF00BF00BF00BF00BF5C
:1018A0000122C3F8942DBFF34F8FBFF36F8FC3F89E
:1018B000501FBFF34F8FBFF36F8FD3F8142D5DF818
:1018C000044B42F44032C3F8142D70473F0000101F
:1018D0002500080709001000402D002013002000FB
:1018E0002100020714000020250008130900001041
:1018F0001600202027000B1317000040180000607E
:101900002F000B07190000701A000080F0B4154A70
:1019100040274FF480314FF480564FF400554FF478
:10192000404443F24200136913F0020F0ED113F446
:10193000005F0FD013F4805F0ED0002BF3DA13F4A6
:10194000803F0BD15B060BD5F0BC704794615161B1
:101950009061E8E75561E6E75661E4E79161E2E707
:101960005761E0E700800D403F4A03203F49F3EE16
:10197000095AD2F880304FF0000C9FED3D6A23F0F9
:1019800001039FED3C5A30B4C2F88030C2F8900099
:10199000D1F8E010384DCBB2384C39482B6007EE07
:1019A000903A0B0DC1F30B21F8EEE77A06EE903A70
:1019B00007EE101A334BB8EEC77A2160F8EEE66AEC
:1019C000314937EEC66A37EEC55A76EEC76A77EE0A
:1019D000E57A26EE266AC3ED006A25EE265AD2F88D
:1019E000803067EEA64AC0ED007AC6EE275A274837
:1019F00085EE276AC4EEA76A75EE875AFCEEE55AB3
:101A000036EE076A15EE904ABCEEC66A43EA045306
:101A100076EE877AC2F8803016EE103AD2F890410E
:101A2000FCEEE77A01EA0341214317EE903AC2F84F
:101A30009011C3F30B03D2F890110B431449C2F871
:101A40009031D2F8803043F00203C2F88030114B5D
:101A500080F840C0C1F840314FF0E023012230BC93
:101A6000C3F80821704700BF00810D4000441F40AB
:101A70000000AA420000B442782C0020742C002000
:101A80007C2C0020802C00200000FF0F00E400E0F0
:101A900000200020E96A0000314B40F6617210B569
:101AA000C3F8202140F2044400F0CAF82D4A2E4920
:101AB000D2F880302D4843F00303C2F880302C4B1D
:101AC000C1F8604102681A4203D1D1F8A8319A07DF
:101AD0001BD0254A4FF00041244B5963D2F84031C6
:101AE00043F00203C2F84031D2F840319B07FBD4E7
:101AF0004FF400304FF0E0211C4B4FF00042C1F892
:101B00008C0219209A6300F0A3F8184A4FF0804025
:101B1000154C002190630A20164B11604FF420727F
:101B2000C4F8A801184600F097F84FF48002034665
:101B30004FF4810040F243111860C4F858311A6420
:101B40000D4B0E4AC4F84811C3F804224FF0E022AE
:101B50004FF400310123C2F80C11C4F8403110BD1C
:101B600000800D4000C00F4000002E4000900D404E
:101B7000001C1E000000002000200020D16C00008E
:101B800008B50E4B1B6E9B0700D4FBBE72B60C4B08
:101B900000200C4AC3F8400103F160430A49A3F551
:101BA0005F2311649D46BFF34F8F4FF40013074826
:101BB000074ADB6902609B68984700BF00441F40EA
:101BC00000002E4000C00A400300200000802020BA
:101BD000000012EB104BA020104AD96E41F44031A6
:101BE00010B4D96640F23764D96E41F44071D966B9
:101BF00054649064936C1B06FCD4094A40F237612C
:101C0000A02351649364936C13F08003FBD1054AC5
:101C100013705DF8044B704700C00F4000400C404B
:101C200000800C40CD2C0020F8B500BFF8BC08BCEB
:101C30009E467047000000005FF800F081870000BA
:101C40005FF800F0417400005FF800F0718100005F
:101C50005FF800F0716600005FF800F0DD860000BC
:101C60005FF800F0598300005FF800F08163000026
:101C700005010000A155000059810000998600006F
:101C800080C00F4000000003190000001000000099
:101C9000E8841F4001000000FF000000FF0000007A
:101CA000000000000000000018000000100000000C
:101CB000E4841F4001000000FF000000FF0000005E
:101CC00000000000000000001F000000B15D0000E7
:101CD00070C00F40000C0000110000001100000057
:101CE000E0841F40020000002400000012000000F9
:101CF000E0841F40010000001000000011000000FF
:101D0000DC841F40020000002500000012000000DB
:101D1000DC841F40010000001E000000A55D0000E3
:101D200070C00F40C000000012000000130000004F
:101D3000D0841F4001000000FF000000FF000000F1
:101D4000000000000000000013000000130000006D
:101D5000CC841F4001000000FF000000FF000000D5
:101D600000000000000000001C000000995D000061
:101D70001603550053004200200053006500720016
:101D8000690061006C0000001803540065006500E4
:101D90006E00730079006400750069006E006F00CA
:101DA0000403090409026200030100C032080B00A9
:101DB00002020201000904000001020201000524E0
:101DC0000010010524010101042402060524060077
:101DD000010705820310001009040100020A000037
:101DE00000070503024000000705840240000009C7
:101DF00004020002FF6AFF0007058102400001079C
:101E0000050102400001000009026200030100C058
:101E100032080B0002020201000904000001020264
:101E2000010005240010010524010101042402061B
:101E300005240600010705820310000509040100BE
:101E4000020A0000000705030200020007058402E1
:101E50000002000904020002FF6AC70007058102B0
:101E60000002010705010200020100000A0600024B
:081E7000EF0201400100000037
:101E7800000000000000000000000000000000005A
:101E8800000000000000000000000000000000004A
:101E9800F8B54FF084439D695A6915400DD0254F18
:101EA80001269D6195FAA5F4B4FA84F457F8243014
:101EB80006FA04F49847A543F4D11F4B9D695A6963
:101EC80015400DD01D4F01269D6195FAA5F4B4FA71
:101ED80084F457F8243006FA04F49847A543F4D15B
:101EE800174B9D695A6915400DD0164F01269D6103
:101EF80095FAA5F4B4FA84F457F8243006FA04F4F1
:101F08009847A543F4D1104B9D695A6915400DD0E7
:101F18000E4F01269D6195FAA5F4B4FA84F457F89A
:101F2800243006FA04F49847A543F4D1BFF34F8F41
:101F3800F8BD00BF001A002000400042801A0020AF
:101F480000800042001B002000C00042801B0020CF
:101F58000548064B1B1AD90F01EBA301491002D003
:101F6800034B03B118477047C0220020C02200204D
:101F78000000000008B5054B1BB105490548AFF343
:101F88000080BDE80840FFF7E3BF00BF0000000085
:101F98000C29002000D80060214B1A68D2E90010F3
:101FA800D3680968006810B41842946801EA04010B
:101FB8002ED0137C03F00303D9B943F00803990822
:101FC800013B11740D2B0BD8DFE803F00D071C073C
:101FD8000A160D0D160A071C070D5369013B5361BC
:101FE8005DF8044B704753695DF8044B0133536146
:101FF800704743F00403E0E753695DF8044B023B84
:102008005361704753695DF8044B0233536170475D
:10201800137C03F003030029D1D043F00403CEE777
:102028003C250020214BDA6DD2E90010D3680968FD
:10203800006810B41842946801EA04012ED0137C99
:1020480003F00303D9B943F008039908013B11745D
:102058000D2B0BD8DFE803F00D071C070A160D0D32
:10206800160A071C070D5369013B53615DF8044BC1
:10207800704753695DF8044B01335361704743F06F
:102088000403E0E753695DF8044B023B5361704772
:1020980053695DF8044B023353617047137C03F0B6
:1020A80003030029D1D043F00403CEE73C250020E8
:1020B800214B1A6ED2E90010D3680968006810B481
:1020C8001842946801EA04012ED0137C03F003033C
:1020D800D9B943F008039908013B11740D2B0BD8AB
:1020E800DFE803F00D071C070A160D0D160A071C7A
:1020F800070D5369013B53615DF8044B7047536901
:102108005DF8044B01335361704743F00403E0E783
:1021180053695DF8044B023B5361704753695DF89E
:10212800044B023353617047137C03F00303002907
:10213800D1D043F00403CEE73C250020214B5A6E52
:10214800D2E90010D3680968006810B4184294688E
:1021580001EA04012ED0137C03F00303D9B943F03C
:1021680008039908013B11740D2B0BD8DFE803F025
:102178000D071C070A160D0D160A071C070D5369D3
:10218800013B53615DF8044B704753695DF8044B9C
:1021980001335361704743F00403E0E753695DF886
:1021A800044B023B5361704753695DF8044B02339B
:1021B80053617047137C03F003030029D1D043F027
:1021C8000403CEE73C250020214B9A6ED2E900108B
:1021D800D3680968006810B41842946801EA0401D9
:1021E8002ED0137C03F00303D9B943F008039908F0
:1021F800013B11740D2B0BD8DFE803F00D071C070A
:102208000A160D0D160A071C070D5369013B536189
:102218005DF8044B704753695DF8044B0133536113
:10222800704743F00403E0E753695DF8044B023B51
:102238005361704753695DF8044B0233536170472B
:10224800137C03F003030029D1D043F00403CEE745
:102258003C250020214BDA6ED2E90010D3680968CA
:10226800006810B41842946801EA04012ED0137C67
:1022780003F00303D9B943F008039908013B11742B
:102288000D2B0BD8DFE803F00D071C070A160D0D00
:10229800160A071C070D5369013B53615DF8044B8F
:1022A800704753695DF8044B01335361704743F03D
:1022B8000403E0E753695DF8044B023B5361704740
:1022C80053695DF8044B023353617047137C03F084
:1022D80003030029D1D043F00403CEE73C250020B6
:1022E800214B1A6FD2E90010D3680968006810B44E
:1022F8001842946801EA04012ED0137C03F003030A
:10230800D9B943F008039908013B11740D2B0BD878
:10231800DFE803F00D071C070A160D0D160A071C47
:10232800070D5369013B53615DF8044B70475369CE
:102338005DF8044B01335361704743F00403E0E751
:1023480053695DF8044B023B5361704753695DF86C
:10235800044B023353617047137C03F003030029D5
:10236800D1D043F00403CEE73C250020214B5A6F1F
:10237800D2E90010D3680968006810B4184294685C
:1023880001EA04012ED0137C03F00303D9B943F00A
:1023980008039908013B11740D2B0BD8DFE803F0F3
:1023A8000D071C070A160D0D160A071C070D5369A1
:1023B800013B53615DF8044B704753695DF8044B6A
:1023C80001335361704743F00403E0E753695DF854
:1023D800044B023B5361704753695DF8044B023369
:1023E80053617047137C03F003030029D1D043F0F5
:1023F8000403CEE73C250020214B9A6FD2E9001058
:10240800D3680968006810B41842946801EA0401A6
:102418002ED0137C03F00303D9B943F008039908BD
:10242800013B11740D2B0BD8DFE803F00D071C07D7
:102438000A160D0D160A071C070D5369013B536157
:102448005DF8044B704753695DF8044B01335361E1
:10245800704743F00403E0E753695DF8044B023B1F
:102468005361704753695DF8044B023353617047F9
:10247800137C03F003030029D1D043F00403CEE713
:102488003C250020214BDA6FD2E90010D368096897
:10249800006810B41842946801EA04012ED0137C35
:1024A80003F00303D9B943F008039908013B1174F9
:1024B8000D2B0BD8DFE803F00D071C070A160D0DCE
:1024C800160A071C070D5369013B53615DF8044B5D
:1024D800704753695DF8044B01335361704743F00B
:1024E8000403E0E753695DF8044B023B536170470E
:1024F80053695DF8044B023353617047137C03F052
:1025080003030029D1D043F00403CEE73C25002083
:10251800224BD3F88020D2E90010D36809680068FC
:1025280010B41842946801EA04012ED0137C03F019
:102538000303D9B943F008039908013B11740D2B23
:102548000BD8DFE803F00D071C070A160D0D160A55
:10255800071C070D5369013B53615DF8044B704735
:1025680053695DF8044B01335361704743F004032A
:10257800E0E753695DF8044B023B536170475369C8
:102588005DF8044B023353617047137C03F0030377
:102598000029D1D043F00403CEE700BF3C2500203A
:1025A800224BD3F88420D2E90010D3680968006868
:1025B80010B41842946801EA04012ED0137C03F089
:1025C8000303D9B943F008039908013B11740D2B93
:1025D8000BD8DFE803F00D071C070A160D0D160AC5
:1025E800071C070D5369013B53615DF8044B7047A5
:1025F80053695DF8044B01335361704743F004039A
:10260800E0E753695DF8044B023B53617047536937
:102618005DF8044B023353617047137C03F00303E6
:102628000029D1D043F00403CEE700BF3C250020A9
:10263800224BD3F88820D2E90010D36809680068D3
:1026480010B41842946801EA04012ED0137C03F0F8
:102658000303D9B943F008039908013B11740D2B02
:102668000BD8DFE803F00D071C070A160D0D160A34
:10267800071C070D5369013B53615DF8044B704714
:1026880053695DF8044B01335361704743F0040309
:10269800E0E753695DF8044B023B536170475369A7
:1026A8005DF8044B023353617047137C03F0030356
:1026B8000029D1D043F00403CEE700BF3C25002019
:1026C800224BD3F88C20D2E90010D368096800683F
:1026D80010B41842946801EA04012ED0137C03F068
:1026E8000303D9B943F008039908013B11740D2B72
:1026F8000BD8DFE803F00D071C070A160D0D160AA4
:10270800071C070D5369013B53615DF8044B704783
:1027180053695DF8044B01335361704743F0040378
:10272800E0E753695DF8044B023B53617047536916
:102738005DF8044B023353617047137C03F00303C5
:102748000029D1D043F00403CEE700BF3C25002088
:10275800224BD3F89020D2E90010D36809680068AA
:1027680010B41842946801EA04012ED0137C03F0D7
:102778000303D9B943F008039908013B11740D2BE1
:102788000BD8DFE803F00D071C070A160D0D160A13
:10279800071C070D5369013B53615DF8044B7047F3
:1027A80053695DF8044B01335361704743F00403E8
:1027B800E0E753695DF8044B023B53617047536986
:1027C8005DF8044B023353617047137C03F0030335
:1027D8000029D1D043F00403CEE700BF3C250020F8
:1027E800224BD3F89420D2E90010D3680968006816
:1027F80010B41842946801EA04012ED0137C03F047
:102808000303D9B943F008039908013B11740D2B50
:102818000BD8DFE803F00D071C070A160D0D160A82
:10282800071C070D5369013B53615DF8044B704762
:1028380053695DF8044B01335361704743F0040357
:10284800E0E753695DF8044B023B536170475369F5
:102858005DF8044B023353617047137C03F00303A4
:102868000029D1D043F00403CEE700BF3C25002067
:10287800224BD3F89820D2E90010D3680968006881
:1028880010B41842946801EA04012ED0137C03F0B6
:102898000303D9B943F008039908013B11740D2BC0
:1028A8000BD8DFE803F00D071C070A160D0D160AF2
:1028B800071C070D5369013B53615DF8044B7047D2
:1028C80053695DF8044B01335361704743F00403C7
:1028D800E0E753695DF8044B023B53617047536965
:1028E8005DF8044B023353617047137C03F0030314
:1028F8000029D1D043F00403CEE700BF3C250020D7
:10290800224BD3F89C20D2E90010D36809680068EC
:1029180010B41842946801EA04012ED0137C03F025
:102928000303D9B943F008039908013B11740D2B2F
:102938000BD8DFE803F00D071C070A160D0D160A61
:10294800071C070D5369013B53615DF8044B704741
:1029580053695DF8044B01335361704743F0040336
:10296800E0E753695DF8044B023B536170475369D4
:102978005DF8044B023353617047137C03F0030383
:102988000029D1D043F00403CEE700BF3C25002046
:10299800214BDA69D2E90010D3680968006810B4DD
:1029A8001842946801EA04012ED0137C03F0030353
:1029B800D9B943F008039908013B11740D2B0BD8C2
:1029C800DFE803F00D071C070A160D0D160A071C91
:1029D800070D5369013B53615DF8044B7047536918
:1029E8005DF8044B01335361704743F00403E0E79B
:1029F80053695DF8044B023B5361704753695DF8B6
:102A0800044B023353617047137C03F0030300291E
:102A1800D1D043F00403CEE73C250020214B1A6AAD
:102A2800D2E90010D3680968006810B418429468A5
:102A380001EA04012ED0137C03F00303D9B943F053
:102A480008039908013B11740D2B0BD8DFE803F03C
:102A58000D071C070A160D0D160A071C070D5369EA
:102A6800013B53615DF8044B704753695DF8044BB3
:102A780001335361704743F00403E0E753695DF89D
:102A8800044B023B5361704753695DF8044B0233B2
:102A980053617047137C03F003030029D1D043F03E
:102AA8000403CEE73C250020214B5A6AD2E90010E6
:102AB800D3680968006810B41842946801EA0401F0
:102AC8002ED0137C03F00303D9B943F00803990807
:102AD800013B11740D2B0BD8DFE803F00D071C0721
:102AE8000A160D0D160A071C070D5369013B5361A1
:102AF8005DF8044B704753695DF8044B013353612B
:102B0800704743F00403E0E753695DF8044B023B68
:102B18005361704753695DF8044B02335361704742
:102B2800137C03F003030029D1D043F00403CEE75C
:102B38003C250020214B9A6AD2E90010D368096825
:102B4800006810B41842946801EA04012ED0137C7E
:102B580003F00303D9B943F008039908013B117442
:102B68000D2B0BD8DFE803F00D071C070A160D0D17
:102B7800160A071C070D5369013B53615DF8044BA6
:102B8800704753695DF8044B01335361704743F054
:102B98000403E0E753695DF8044B023B5361704757
:102BA80053695DF8044B023353617047137C03F09B
:102BB80003030029D1D043F00403CEE73C250020CD
:102BC800214BDA6AD2E90010D3680968006810B4AA
:102BD8001842946801EA04012ED0137C03F0030321
:102BE800D9B943F008039908013B11740D2B0BD890
:102BF800DFE803F00D071C070A160D0D160A071C5F
:102C0800070D5369013B53615DF8044B70475369E5
:102C18005DF8044B01335361704743F00403E0E768
:102C280053695DF8044B023B5361704753695DF883
:102C3800044B023353617047137C03F003030029EC
:102C4800D1D043F00403CEE73C250020214B1A6B7A
:102C5800D2E90010D3680968006810B41842946873
:102C680001EA04012ED0137C03F00303D9B943F021
:102C780008039908013B11740D2B0BD8DFE803F00A
:102C88000D071C070A160D0D160A071C070D5369B8
:102C9800013B53615DF8044B704753695DF8044B81
:102CA80001335361704743F00403E0E753695DF86B
:102CB800044B023B5361704753695DF8044B023380
:102CC80053617047137C03F003030029D1D043F00C
:102CD8000403CEE73C250020214B5A6BD2E90010B3
:102CE800D3680968006810B41842946801EA0401BE
:102CF8002ED0137C03F00303D9B943F008039908D5
:102D0800013B11740D2B0BD8DFE803F00D071C07EE
:102D18000A160D0D160A071C070D5369013B53616E
:102D28005DF8044B704753695DF8044B01335361F8
:102D3800704743F00403E0E753695DF8044B023B36
:102D48005361704753695DF8044B02335361704710
:102D5800137C03F003030029D1D043F00403CEE72A
:102D68003C250020214B9A6BD2E90010D3680968F2
:102D7800006810B41842946801EA04012ED0137C4C
:102D880003F00303D9B943F008039908013B117410
:102D98000D2B0BD8DFE803F00D071C070A160D0DE5
:102DA800160A071C070D5369013B53615DF8044B74
:102DB800704753695DF8044B01335361704743F022
:102DC8000403E0E753695DF8044B023B5361704725
:102DD80053695DF8044B023353617047137C03F069
:102DE80003030029D1D043F00403CEE73C2500209B
:102DF800214BDA6BD2E90010D3680968006810B477
:102E08001842946801EA04012ED0137C03F00303EE
:102E1800D9B943F008039908013B11740D2B0BD85D
:102E2800DFE803F00D071C070A160D0D160A071C2C
:102E3800070D5369013B53615DF8044B70475369B3
:102E48005DF8044B01335361704743F00403E0E736
:102E580053695DF8044B023B5361704753695DF851
:102E6800044B023353617047137C03F003030029BA
:102E7800D1D043F00403CEE73C250020214B1A6C47
:102E8800D2E90010D3680968006810B41842946841
:102E980001EA04012ED0137C03F00303D9B943F0EF
:102EA80008039908013B11740D2B0BD8DFE803F0D8
:102EB8000D071C070A160D0D160A071C070D536986
:102EC800013B53615DF8044B704753695DF8044B4F
:102ED80001335361704743F00403E0E753695DF839
:102EE800044B023B5361704753695DF8044B02334E
:102EF80053617047137C03F003030029D1D043F0DA
:102F08000403CEE73C250020214B5A6CD2E900107F
:102F1800D3680968006810B41842946801EA04018B
:102F28002ED0137C03F00303D9B943F008039908A2
:102F3800013B11740D2B0BD8DFE803F00D071C07BC
:102F48000A160D0D160A071C070D5369013B53613C
:102F58005DF8044B704753695DF8044B01335361C6
:102F6800704743F00403E0E753695DF8044B023B04
:102F78005361704753695DF8044B023353617047DE
:102F8800137C03F003030029D1D043F00403CEE7F8
:102F98003C250020214B9A6CD2E90010D3680968BF
:102FA800006810B41842946801EA04012ED0137C1A
:102FB80003F00303D9B943F008039908013B1174DE
:102FC8000D2B0BD8DFE803F00D071C070A160D0DB3
:102FD800160A071C070D5369013B53615DF8044B42
:102FE800704753695DF8044B01335361704743F0F0
:102FF8000403E0E753695DF8044B023B53617047F3
:1030080053695DF8044B023353617047137C03F036
:1030180003030029D1D043F00403CEE73C25002068
:10302800214BDA6CD2E90010D3680968006810B443
:103038001842946801EA04012ED0137C03F00303BC
:10304800D9B943F008039908013B11740D2B0BD82B
:10305800DFE803F00D071C070A160D0D160A071CFA
:10306800070D5369013B53615DF8044B7047536981
:103078005DF8044B01335361704743F00403E0E704
:1030880053695DF8044B023B5361704753695DF81F
:10309800044B023353617047137C03F00303002988
:1030A800D1D043F00403CEE73C250020214B1A6D14
:1030B800D2E90010D3680968006810B4184294680F
:1030C80001EA04012ED0137C03F00303D9B943F0BD
:1030D80008039908013B11740D2B0BD8DFE803F0A6
:1030E8000D071C070A160D0D160A071C070D536954
:1030F800013B53615DF8044B704753695DF8044B1D
:1031080001335361704743F00403E0E753695DF806
:10311800044B023B5361704753695DF8044B02331B
:1031280053617047137C03F003030029D1D043F0A7
:103138000403CEE73C250020214B5A6DD2E900104C
:10314800D3680968006810B41842946801EA040159
:103158002ED0137C03F00303D9B943F00803990870
:10316800013B11740D2B0BD8DFE803F00D071C078A
:103178000A160D0D160A071C070D5369013B53610A
:103188005DF8044B704753695DF8044B0133536194
:10319800704743F00403E0E753695DF8044B023BD2
:1031A8005361704753695DF8044B023353617047AC
:1031B800137C03F003030029D1D043F00403CEE7C6
:1031C8003C250020214B9A6DD2E90010D36809688C
:1031D800006810B41842946801EA04012ED0137CE8
:1031E80003F00303D9B943F008039908013B1174AC
:1031F8000D2B0BD8DFE803F00D071C070A160D0D81
:10320800160A071C070D5369013B53615DF8044B0F
:10321800704753695DF8044B01335361704743F0BD
:103228000403E0E753695DF8044B023B53617047C0
:1032380053695DF8044B023353617047137C03F004
:1032480003030029D1D043F00403CEE73C25002036
:10325800214BDA68D2E90010D3680968006810B415
:103268001842946801EA04012ED0137C03F003038A
:10327800D9B943F008039908013B11740D2B0BD8F9
:10328800DFE803F00D071C070A160D0D160A071CC8
:10329800070D5369013B53615DF8044B704753694F
:1032A8005DF8044B01335361704743F00403E0E7D2
:1032B80053695DF8044B023B5361704753695DF8ED
:1032C800044B023353617047137C03F00303002956
:1032D800D1D043F00403CEE73C250020214B1A69E6
:1032E800D2E90010D3680968006810B418429468DD
:1032F80001EA04012ED0137C03F00303D9B943F08B
:1033080008039908013B11740D2B0BD8DFE803F073
:103318000D071C070A160D0D160A071C070D536921
:10332800013B53615DF8044B704753695DF8044BEA
:1033380001335361704743F00403E0E753695DF8D4
:10334800044B023B5361704753695DF8044B0233E9
:1033580053617047137C03F003030029D1D043F075
:103368000403CEE73C250020214B5A69D2E900101E
:10337800D3680968006810B41842946801EA040127
:103388002ED0137C03F00303D9B943F0080399083E
:10339800013B11740D2B0BD8DFE803F00D071C0758
:1033A8000A160D0D160A071C070D5369013B5361D8
:1033B8005DF8044B704753695DF8044B0133536162
:1033C800704743F00403E0E753695DF8044B023BA0
:1033D8005361704753695DF8044B0233536170477A
:1033E800137C03F003030029D1D043F00403CEE794
:1033F8003C250020214B9A69D2E90010D36809685E
:10340800006810B41842946801EA04012ED0137CB5
:1034180003F00303D9B943F008039908013B117479
:103428000D2B0BD8DFE803F00D071C070A160D0D4E
:10343800160A071C070D5369013B53615DF8044BDD
:10344800704753695DF8044B01335361704743F08B
:103458000403E0E753695DF8044B023B536170478E
:1034680053695DF8044B023353617047137C03F0D2
:1034780003030029D1D043F00403CEE73C25002004
:10348800214B5A68D2E90010D3680968006810B463
:103498001842946801EA04012ED0137C03F0030358
:1034A800D9B943F008039908013B11740D2B0BD8C7
:1034B800DFE803F00D071C070A160D0D160A071C96
:1034C800070D5369013B53615DF8044B704753691D
:1034D8005DF8044B01335361704743F00403E0E7A0
:1034E80053695DF8044B023B5361704753695DF8BB
:1034F800044B023353617047137C03F00303002924
:10350800D1D043F00403CEE73C250020214B9A6834
:10351800D2E90010D3680968006810B418429468AA
:1035280001EA04012ED0137C03F00303D9B943F058
:1035380008039908013B11740D2B0BD8DFE803F041
:103548000D071C070A160D0D160A071C070D5369EF
:10355800013B53615DF8044B704753695DF8044BB8
:1035680001335361704743F00403E0E753695DF8A2
:10357800044B023B5361704753695DF8044B0233B7
:1035880053617047137C03F003030029D1D043F043
:103598000403CEE73C2500200B4610B5272800F28F
:1035A8009B81DFE810F0900186017D0174016B01B9
:1035B80062015901500147013E0135012C012301E7
:1035C8001A0111010801FF00F600ED00E400DB001C
:1035D800D200C900C000B700AE00A5009C0093004F
:1035E8008A00810078006E0064005A00500046008E
:1035F8003C0032002800B94C0422B9492720C4F8FD
:103608009C3005F061F8012010BDB44C0422B54986
:103618002620C4F8983005F057F8012010BDAF4CAB
:103628000422B1492520C4F8943005F04DF8012052
:1036380010BDAA4C0422AD492420C4F8903005F0EE
:1036480043F8012010BDA54C0422A9492320C4F841
:103658008C3005F039F8012010BDA04C0422A54992
:103668002220C4F8883005F02FF8012010BD9B4CAB
:103678000422A1492120C4F8843005F025F801204E
:1036880010BD964C04229D492020C4F8803005F0D6
:103698001BF8012010BD914C042299491F20E367B3
:1036A80005F012F8012010BD8C4C042295491E200B
:1036B800A36705F009F8012010BD884C042292493F
:1036C8001D20636705F000F8012010BD834C04221B
:1036D8008E491C20236704F0F7FF012010BD7F4CA2
:1036E80004228B491B20E36604F0EEFF012010BD85
:1036F8007A4C042287491A20A36604F0E5FF0120CA
:1037080010BD764C042284491920636604F0DCFF5E
:10371800012010BD714C042280491820236604F052
:10372800D3FF012010BD6D4C04227D491720E365AD
:1037380004F0CAFF012010BD684C04227949162004
:10374800A36504F0C1FF012010BD644C0422764932
:103758001520636504F0B8FF012010BD5F4C0422FA
:1037680072491420236504F0AFFF012010BD5B4CA3
:1037780004226F491320E36404F0A6FF012010BD62
:10378800564C04226B491220A36404F09DFF0120CB
:1037980010BD524C042268491120636404F094FF60
:1037A800012010BD4D4C042264491020236404F00C
:1037B8008BFF012010BD494C042261490F20E363AF
:1037C80004F082FF012010BD444C04225D490E2004
:1037D800A36304F079FF012010BD404C04225A492C
:1037E8000D20636304F070FF012010BD3B4C0422E0
:1037F80056490C20236304F067FF012010BD374CA5
:10380800042253490B20E36204F05EFF012010BD3F
:10381800324C04224F490A20A36204F055FF0120CC
:1038280010BD2E4C04224C490920636204F04CFF61
:10383800012010BD294C042248490820236204F0C5
:1038480043FF012010BD254C042245490720E361B0
:1038580004F03AFF012010BD204C04224149062003
:10386800A36104F031FF012010BD1C4C04223E4925
:103878000520636104F028FF012010BD0422174CC5
:103888003A491046236104F01FFF012010BD134C74
:10389800042237490320E36004F016FF012010BD1D
:1038A8000E4C042233490220A36004F00DFF0120CE
:1038B80010BD0446094804222F494360012004F042
:1038C80003FF204610BD054C04222C49002023602C
:1038D80004F0FAFE012010BD002010BD3C25002098
:1038E800910A0000010A000071090000E1080000C7
:1038F80051080000C107000031070000A1060000C0
:103908001506000089050000FD0400007104000090
:10391800E503000059030000CD0200004102000049
:10392800B501000055130000C91200003D12000047
:10393800B111000025110000991000000D100000C1
:10394800810F0000F50E0000690E0000DD0D00007B
:10395800510D0000C50C0000390C0000AD0B000033
:10396800210B000085150000F91400006D140000FB
:10397800E11300009D160000111600002901000047
:1039880038B50D4D0D4806F0A3FE0D4C0021284614
:1039980004F0AAFA9FED0B0A284604F02DFA2046F7
:1039A80004F0EEFA0021204604F010FB2046002126
:1039B800BDE8384004F014BB3029002090150020E1
:1039C800F02400200000C8447C2800F28780DFE84B
:1039D80010F08D008D008D008D008500850085001C
:1039E800850085008500190121011D0185008500DC
:1039F800850031012D018500E900850085008500DD
:103A080085002501A900A50085002901450141017E
:103A180085003D017D007D007D007D007D007D00ED
:103A2800390111010D0169016501890089008900C9
:103A3800890095009500950061015D01E100850010
:103A48008500DD00D90085008500D5005901850075
:103A580085005501B500910091009D009D009100E1
:103A68009100C900D100CD00F100850085008500D6
:103A78008500ED0081001501B10081008100810001
:103A88008100AD008500090185008500850085005D
:103A9800850005010101FD00F900F50085005101CF
:103AA80085004D014901C500C100850085008500DC
:103AB800BD009900B9009900990085008500A10012
:103AC800E5008500850085008500350119217748C6
:103AD80005F046BF0621764805F042BF0C2175481F
:103AE80005F03EBF0C21744805F03ABF0621734823
:103AF80005F036BF0721724805F032BF062171482C
:103B080005F02EBF0721704805F02ABF0E216F4827
:103B180005F026BF1B216E4805F022BF06216D481F
:103B280005F01EBF10216C4805F01ABF10216B4824
:103B380005F016BF0E216A4805F012BF102169482A
:103B480005F00EBF0F21684805F00ABF0C21674831
:103B580005F006BF0721664805F002BF0721654842
:103B680005F0FEBE2121644805F0FABE1421634821
:103B780005F0F6BE1721624805F0F2BE152161482E
:103B880005F0EEBE1121604805F0EABE16215F4837
:103B980005F0E6BE11215E4805F0E2BE1B215D4836
:103BA80005F0DEBE0F215C4805F0DABE0B215B484C
:103BB80005F0D6BE22215A4805F0D2BE0A2159483E
:103BC80005F0CEBE1221584805F0CABE1D2157483F
:103BD80005F0C6BE1221564805F0C2BE262155483A
:103BE80005F0BEBE0621544805F0BABE2D21534843
:103BF80005F0B6BE1521524805F0B2BE0E21514857
:103C080005F0AEBE0821504805F0AABE06214F486F
:103C180005F0A6BE0D214E4805F0A2BE09214D486B
:103C280005F09EBE07214C4805F09ABE06214B4878
:103C380005F096BE06214A4805F092BE072149487C
:103C480005F08EBE2F21484805F08ABE302147482E
:103C580005F086BE2121464805F082BE3021454840
:103C680005F07EBE2821444805F07ABE4621434827
:103C780005F076BE0B21424805F072BE1521414879
:103C880005F06EBE0721404805F06ABE11213F4885
:103C980005F066BE18213E4805F062BE07213D4882
:103CA80005F05EBE10213C4805F05ABEE403002032
:103CB8001C060020AC07002094040020DC02002031
:103CC80068050020A4040020640700207005002077
:103CD8006C0700204803002034030020240600203D
:103CE80014060020540500205C0700204C07002023
:103CF800440700203C07002080050020BC05002068
:103D0800A40500201C05002008050020F004002060
:103D1800DC0400208807002018030020F805002094
:103D2800D4050020B00600209C0600207C06002058
:103D380068060020400600203806002048040020BD
:103D48003004002004060020E402002000030020C4
:103D5800F002002028030020500300201003002058
:103D680008030020A407002000040020B00300205E
:103D78008C0300205803002010070020C8060020EC
:103D8800BC0600203C05002034050020C8040020A3
:103D9800AC0400208C040020780400202DE9F047B2
:103DA8000B21384805F0DCFD374801244FF00008A6
:103DB800364D05F0D7FEDFF8F090334F04E00428C5
:103DC8003DD001347F2C2ED04FF0010AE6B22846B0
:103DD80006FA0AF3514685F830A185F82FA185F82F
:103DE800A53003F08BFD0028E9D11A21284805F0F9
:103DF800B7FD0F2CD04432D9002310222146384673
:103E080005F0BEFE03212348013405F0A9FD304624
:103E1800FFF7DAFD0121204805F0A2FD384605F03C
:103E2800A1FE7F2CD0D1B8F1000F22D115211B485B
:103E380005F096FD1448BDE8F04705F093BE1B2138
:103E4800484605F08DFD0F2C0ED92146002310227F
:103E5800384605F095FE384605F084FEB1E7514630
:103E68000F4805F07DFDC7E751460D4805F078FD80
:103E7800EBE705210B4805F073FD0348BDE8F04763
:103E880005F070BEBC0700208015002090150020AA
:103E9800C8070020E4070020E807002008080020E1
:103EA8001805002020080020EC07002038B52F4B0B
:103EB8001B78002B2AD12E4B197899B92D4B1B78DA
:103EC800002B39D12C4D2D4C2A6820682C4B0244EC
:103ED8002C49B3FBF2F307EE903AF8EEE77AC1ED1E
:103EE800007A38BD41F27073274C28482360284A6D
:103EF800284C0068204D2849236012681F4C286010
:103F080004200978226004F069FBDDE71E4841F2CD
:103F18007075224C056024681E48214A214B1E49B1
:103F280012681B68144D04600420144C09782A6038
:103F3800236004F053FBC7E741F27073124C1A4830
:103F480023601A4A134C00680B4D236012680B4C0F
:103F580028600320226004F041FB0F4B04201978ED
:103F680081F0010104F03AFBAEE700BFE62C002027
:103F78009F1C0020EE2C0020802700208427002092
:103F880040420F00F4190020501C00209019002016
:103F980098190020581C0020F72C00205C1C0020D9
:103FA80088190020941900208C19002088270020E7
:103FB80038B5104B1B78BBB90F4C2378A3B10F4D04
:103FC8002B788BB90E4B1B7813B10E4B1B7863B94A
:103FD8000121032004F002FB0B4A01210020137881
:103FE80020700B442970137038BD084B1B78002BC8
:103FF800F2D0EDE7E72C0020E42C0020CF2C0020A5
:10400800012D0020FE2C0020E52C0020A21C002001
:1040180038B5524B1B7883B1514B524D524A1B68ED
:10402800296812685B1A934203D3504C2378DBB19A
:1040380038BD4F4A12689342FAD34C4C2378002B70
:10404800F6D00021152004F0C9FA00210D2004F053
:10405800C5FA484B00221B782270002BE8D00620B6
:10406800BDE8384005F090BF04F08EFA424B286056
:104078001B788BB90121152004F0B0FA01210D201D
:1040880004F0ACFA3B4B1B789BB93C4A01211368FE
:1040980021700B44136038BD394B1A7E012A0FD9A1
:1040A80072B65A6962B637480421026005F058FCB6
:1040B800E0E7354B00220620198805F0B1FEE4E759
:1040C80072B6D3E900109A68096800681140DA6886
:1040D80010423BD01A7C02F0030209B142F00402FC
:1040E80042F008029108013A19740D2AD9D801A1A1
:1040F80051F822F0C5220000BD220000D5220000A0
:10410800BD22000033220000CD220000C52200009D
:10411800C5220000CD22000033220000BD2200008D
:10412800D5220000BD220000C52200005A69013ACC
:104138005A61B7E75A6901325A61B3E75A69023AD4
:104148005A61AFE75A6902325A61ABE71A7C02F04A
:1041580003020029C6D042F00402C3E7E92C00207C
:10416800A42C00202C2900207C270020E32C0020F0
:10417800481C0020F22C00208D1C0020242900203F
:10418800EC280020282900206C19002038B5194B8C
:104198001B7883B1184B194C194A1B68216812689F
:1041A8005B1A934203D3174D2B789BB138BD164A3F
:1041B80012689342FAD3134C2378002BF6D00021CF
:1041C800152004F00BFA00210D2004F007FA002353
:1041D800237038BD04F0D8F9034601211520236067
:1041E80004F0FCF901210D2004F0F8F901232B70EB
:1041F80038BD00BFEA2C0020A42C00202C29002068
:104208007C270020E32C0020481C0020214B1B7831
:10421800FF2B0BD0204B214A1B78D05C90B1012892
:1042280027D002281FD0032829D070471C4B1B78A1
:10423800012B07D01B4B1C481C4A1B781178C35C08
:10424800994205D91A4A00201A4B12881A807047D9
:10425800517899420DD89178994204D8D2789A42E7
:1042680012D80120E1E7144A0220124B12881A8062
:104278007047124A01200F4B12881A807047104A63
:104288000C4B12881A8070470D4A0320094B12887C
:104298001A807047A31C0020DC2C00208C270020EB
:1042A800951C0020DB2C0020442B0020F81900204E
:1042B800841C0020821C0020881C0020861C0020F2
:1042C8008A1C00201E491F4A08681F4938B51F4B21
:1042D8000124086014701C70FFF798FF1C4B1D4ADE
:1042E8001B7810704BB11C491C4A51F820501C4BCC
:1042F8001C49147000220D601A701B4B1B4C1B5C70
:104308001B4A83F001012370117053B1194A01212E
:10431800194C11700022194B54F8204018491A7092
:104328000C601849184B51F82010184C184A19609D
:1043380054F82040125C1749174B0C601A7038BDAE
:10434800A82C0020D32C00209C2C0020D72C002047
:10435800FF2C0020F52C002078190020D52C0020F7
:10436800D02C002074190020A4280020D42C002070
:10437800DA2C0020D22C0020A4190020CB2C0020FD
:10438800A0190020E0190020DC190020CC19002019
:10439800F0190020C81900208F1C0020F8B5524BD6
:1043A8001B78002B30D1514A514E524D1068524C57
:1043B80033782A68217800296CD1504909789942C4
:1043C80001D800233370824201D300232B604C4B69
:1043D8001B78C3B14B4C2378ABB14B4D2B7893B9B9
:1043E8004A4B1B781BB14A4B1B78002B76D1012115
:1043F800032004F0F3F801232B70464A00211378B8
:10440800217001331370F8BD3A4D394E374F2A6881
:104418003378386801334049841A0132DBB2012A03
:104428000C6033702A603AD138494FF0000C324C96
:1044380038480978227080F800C021B334493748D9
:104448000978002937D10178DFF8E8C09CF800C066
:10445800BCF1000F11D0DFF8E0C01CF801C007EE76
:1044680090CADFF8D8C0F8EEE77A9CED007A67EEDC
:10447800877AFCEEE77AC7ED007ADFF8C4C08CF8DB
:104488000010013101702649097811B125490978D0
:1044980039B93868012B90D11A490B708DE7164C41
:1044A80088E7214909780029F3D0FFF70BFF337813
:1044B80038682A687EE71D49DFF888C091F800E06F
:1044C80001781CF801C0F445DFF864E02CBF4FF018
:1044D800000C4FF0010C8EF800C0B5E7144B1B78A8
:1044E800002B8AD083E700BF9E1C0020681C002098
:1044F800E82C002074270020F32C0020961C0020B4
:10450800E72C0020E42C0020CF2C0020012D0020D7
:10451800FE2C0020E52C002078270020DB2C002032
:10452800002D0020971C0020E92C0020A01C002052
:10453800A21C0020EB2C0020442A0020F4190020A3
:10454800DC2C0020442900202DE9F843724B734DE0
:104558001B78734F734C6BB12A683B6872499B1A7E
:1045680001320B60012A23782A6003F10103DBB2D0
:10457800237047D06D4EDFF804823378002B39D092
:104588002378012B21D0DFF8F89199F8003003BB8C
:1045980098F80010664B22781B789A4201D30023C2
:1045A8002370644B1B788B4201D833783BB92A6857
:1045B8003B689A4201D300232B60BDE8F8830022B0
:1045C8005D4B327001221A70F1E7DFF8B49189F877
:1045D80000300121022004F001F898F80010574B30
:1045E800012201311A700023C9B289F8003088F815
:1045F8000010CFE70121022003F0F0FF4F4B01220A
:104608001A70C0E74E49494EDFF8708132700022B7
:10461800097888F8002000292FD04A4A127812B366
:10462800494A4A4892F800C049490278895C61457C
:10463800DFF824C128BF00219CF800E038BF012121
:10464800DFF840C18CF80010BEF1000F34D1DFF85C
:104658000CC18CF800200132027071B93D4A127801
:10466800002A8ED01BE03C4B384A1B78002B3ED1E9
:1046780013783A490B7001331370394B0121032029
:104688001A68384B1A6003F0A9FF374B04201978D1
:1046980003F0A4FF2F4B1B78002B3FF46EAF334B76
:1046A8001B78002B3FF469AF314B1B78002B3FF48C
:1046B80064AFFFF707FE60E79CF80010DFF8B8C0AA
:1046C8001CF802C007EE90CADFF8A8C0F8EEE77A37
:1046D8009CED007ADFF884C067EE877A8CF80020BA
:1046E8000132FCEEE77A0270C7ED007AB5E7214B9C
:1046F800214993ED007A1378C95C07EE901A17499F
:10470800F8EEE77A0B70013367EE877A1370FCEEE8
:10471800E77AC7ED007AB0E79E1C002074270020D6
:10472800601C0020E82C002078270020F32C0020B3
:104738009C1C00209D1C0020DD2C0020CE2C00207D
:10474800012D0020FE2C0020A01C0020DB2C0020C6
:1047580044290020002D0020EB2C0020DC2C002018
:10476800541C0020501C0020F72C0020971C00200F
:10477800E92C0020F4190020442A0020E52C002010
:10478800E42C0020A21C002070B53F4B86B00446E4
:104798000E4606AD0FCB05E90F003C4B01251D70F9
:1047A800E30B48D1A30B1AD0C4F3402204213848A4
:1047B80003F05CFCC4F380220521354803F056FC65
:1047C800C4F3C0220621324803F050FCC4F300327F
:1047D80007212F4806B0BDE8704003F047BC620BC4
:1047E80029D006A9C4F382222A4801EB42021946BD
:1047F800019332F8102C03F051FA06ABC4F3C2123D
:1048080029462448C4F3021403EB4202019B32F800
:10481800102C03F043FA06AA019B022102EB440480
:104828001C4834F8102C03F039FA032E29D8DFE895
:1048380006F02018100E184B00220620198805F0E3
:10484800EFFA032E1DD8DFE806F0140C040201224B
:10485800BEE7012206210E4806B0BDE8704003F00D
:1048680005BC012205210A4806B0BDE8704003F0E6
:10487800FDBB01220421064806B0BDE8704003F0E4
:10488800F5BB06B070BD00BF80020020D02C002010
:10489800F0240020302900206C19002010B5254B89
:1048A800002482B01C70C30B03D1820B1BD1400BB8
:1048B8001CD1062005F068FB002204211E4803F0E5
:1048C800D5FB002205211C4803F0D0FB002206215D
:1048D800194803F0CBFB00220721174802B0BDE8B6
:1048E800104003F0C3BB04212246E7E711461346F4
:1048F8001248019203F0D2F9019A01210F48134698
:1049080003F0CCF9019A02210C48134603F0C6F9CA
:10491800019A0421084803F0A9FB019A05210648D9
:1049280003F0A4FB019A0621034803F09FFB019AB8
:10493800D2E700BFD02C0020F0240020302900202E
:104948007C4B1B7870B573B17B4B1A78002A00F04A
:104958008B807A4A7A487B49126800680968121A7B
:104968008A4280F0A780784C23786BB1774B1A780D
:10497800002A62D0714A724875491268006809684D
:10498800121A8A4280F0878072490B78FBB16C4812
:104998006A4A714B006812681B68121A9A4242D31D
:1049A8006E4D2D682B449A4242D22378002B00F09A
:1049B8008A806B4B1B784BB16A4C00236A4A247877
:1049C8000B70147069496A4A0B70106070BD664CB0
:1049D800237803B3594B66481D68664A0368126812
:1049E800EB1A93425DD3614E3278002A75D0624A41
:1049F80012689342EAD3614B00221B883270580731
:104A0800C3F3800100F190800F2003F0E7FD2378C5
:104A1800013B237070BD554A11780029D6D05849FA
:104A280013700B7070BD4D48006803449A42CDD393
:104A380000234E4A0B70137070BD524D2B78002B1B
:104A4800A2D0474E3378002B53D03C4A3C491268D9
:104A580009683F4B521A4C491B6809680B449A4233
:104A680092D300232B708FE7484B1B78002B3FF421
:104A78007AAF324A3248334B4549126800681B689E
:104A88000968121A0B449A42FFF46DAF3B4B188821
:104A9800FFF704FF67E700203A4A012118701170F8
:104AA80072E7354A1268934290D3304E3378002B20
:104AB800A1D170BD374900223048097800881A70A2
:104AC800FFF762FE4FE7274D284C0B70264A2978DE
:104AD8002370274B1170186070BD284B01210560A9
:104AE8001B8831705C0717D40F20BDE8704003F0B5
:104AF80075BD224B16201B881B0706D403F098FDB2
:104B0800B0FA80F0400930709FE703F091FD00385B
:104B180018BF0120307098E70A461F4803F00301C8
:104B2800BDE8704003F0A2BA03F003011A4803F08D
:104B38009DFA6CE7FF2C0020D52C0020A82C002023
:104B48009C2C002070190020D42C0020D22C00208E
:104B580064190020D72C00203C1C0020A01900203C
:104B6800DA2C00208F1C0020D12C0020D62C00200D
:104B7800A02C0020C8190020DC190020821C00206D
:104B8800D32C0020CB2C002068190020D02C00202A
:104B980074190020F52C0020F024002030B5334B88
:104BA80085B0044604AD0FCB05E90F00002C47D0B3
:104BB80014F0300FC4F3011232D114F00C0F114667
:104BC800C4F3810236D0230903F0040342EA030543
:104BD80014F0030232D0240904F00404144304AA94
:104BE8000023234802EB4102194632F8102C03F047
:104BF80055F804AB01211E4803EB4502002332F8A7
:104C0800102C03F04BF804AB0221194803EB4402C3
:104C1800002332F8102C05B0BDE8304003F03EB850
:104C2800230914F00C0F03F0040342EA0301C4F350
:104C38008102C8D1154614F00302CCD11446CEE740
:104C48002146234622460A4803F028F823462246EE
:104C58000121074803F022F823462246022104488E
:104C680005B0BDE8304003F019B800BF800200204D
:104C78003029002008B50121152003F0EBFC0121A3
:104C88000D2003F0E7FC0121022003F0E3FC0121E1
:104C9800032003F0DFFC0121042003F0DBFC0121E9
:104CA8000F2003F0D7FC0121062003F0D3FC2D4B85
:104CB8001B78002B4AD003210A2003F0CBFC0321E8
:104CC800162003F0C7FC0021152003F087FC002103
:104CD8000D2003F083FC0021022003F07FFC00215B
:104CE800032003F07BFC00210F2003F077FC012157
:104CF800182003F0AFFC0121052003F0ABFC0121D3
:104D0800072003F0A7FC0121082003F0A3FC0121E0
:104D1800092003F09FFC0021182003F05FFC00210C
:104D2800052003F05BFC0021072003F057FC00215D
:104D3800082003F053FC0021092003F04FFC0A4B24
:104D48001B7813B1094B1B782BB908BD02210A2027
:104D580003F080FCB3E7064B1878BDE80840FFF77E
:104D68001DBF00BF941C0020012D0020022D002033
:104D7800991C00202DE9F843264D40F2EE282648DC
:104D880003F036FA254C2E68254FDFF8C09005F061
:104D98003FF92378002B2FD03B78DB072CD52B68E5
:104DA800D9F800209B1A0E2B26D91E4802F0A6FB24
:104DB8001D4B1B7823B172B61C4B00225A6162B698
:104DC800FFF758FF1A4CFFF771F8FEF7D9FD194A9B
:104DD8000023194912782370012482F00102174830
:104DE8000A701749174A0B701370047003F0CCFB54
:104DF800154B1860BDE8F8832B6822789B1B2AB1F5
:104E0800B3F5FA6FD1D805F003F9C0E74345FAD9ED
:104E1800CBE700BF8C2C00200065CD1DFB2C0020AB
:104E2800FA2C0020E8240020A41C0020EC280020F4
:104E3800EF2C0020012D00209E1C0020931C002038
:104E4800D82C0020D92C0020942C0020B42C002031
:104E580070B5244D0A2003F0EBFB234C2B788342DA
:104E680002D0237813B970BD237853B10A2003F018
:104E7800DFFB2B7883F001039842F4D100232370E1
:104E880070BD012219491A4E0A701A491A480B7046
:104E98001A4900780B701A4922700A7019490B7068
:104EA80019490A6019490B7019490B7019490B60A7
:104EB80019490B701949097881EA020C86F800C073
:104EC800174E337008B1174B1A7011B1164B0122E7
:104ED8001A70164B1B78002BC8D0154B1878FFF7A3
:104EE8005DFEBEE7941C0020E02C00209E1C0020E4
:104EF800DA2C0020931C0020FF2C0020D92C002045
:104F0800D82C0020DB2C0020441C0020E82C00209A
:104F1800E52C002074270020D12C0020D42C002060
:104F2800D72C0020D52C0020D22C0020022D0020C8
:104F3800921C00201A491B4A0B681268934230B42D
:104F480012D3194804787CB9184B1A7852B1184A08
:104F580012783AB1174D012217491C702B7802704C
:104F68000A70BBB930BC7047114800780028F9D0E6
:104F78000E4800780028F5D00B4800780028F1D1B9
:104F88000E4800780028EDD101330D48D21A0B6085
:104F98000260E7E70B4B30BC1878FFF7FFBD00BF96
:104FA800E8280020082900209E1C0020931C0020CF
:104FB800EF2C0020022D0020D82C0020DE2C002011
:104FC80078270020921C00200021032010B503F050
:104FD80005FB1949194A00230978127818489142A3
:104FE800037002D3174A12787AB9174A174B127806
:104FF8001B689A4208D3164B1A782AB1154A1178B9
:1050080011B11549097831B910BD144A1178002930
:10501800EBD01370E9E700211148124C19700123F5
:105028000078117023700028EED00F4BBDE81040B7
:105038001878FFF7B3BD00BFE52C0020A11C0020A5
:10504800CF2C0020E62C0020DB2C0020441C002064
:105058009E1C0020D82C0020EF2C0020F32C0020D0
:10506800022D0020D92C0020981C0020F8B5364DC0
:10507800364C2B78B3B9364A364923681268097812
:10508800934201D300232360334B1B68994208D312
:105098002B7833B1314B1A781AB1314A1278002A79
:1050A80042D1F8BD2A4E236832682E49D01A0133FE
:1050B800012B0860236002D026490978E0E72A4AD4
:1050C800127812B1294A127812BB224F244A127858
:1050D80012B932683978D3E7254A12782AB9326882
:1050E80039780131C9B23970CAE73978214A525C36
:1050F80007EE902A204AF8EEE77A92ED007A67EEFA
:10510800877AFCEEE77A17EE902AC6ED007AE8E790
:105118001A4A104F1278002AD8D0194B3A781A70C8
:10512800FFF7D0F82368D1E70022164916481A700D
:10513800012309782A7003700029B2D0134B18781C
:10514800BDE8F840FFF72ABD9E1C00207427002008
:10515800641C0020DB2C0020441C0020D82C0020DC
:10516800EF2C002078270020002D0020971C00201D
:10517800EB2C0020442A0020F4190020E92C002000
:10518800DC2C0020022D0020D92C0020981C0020A7
:1051980038B51B4B1A7802B938BD0024194A41F2B8
:1051A8007075032021461C70156003F017FA164B22
:1051B8000420197881F0010103F010FA134A144B06
:1051C80012781B689A42E7D3124B1A78002AE3D068
:1051D800114A11780029DFD0104909780029DBD05D
:1051E8000F4D01200F491C702B7814700870002B8C
:1051F800D2D00D4B1878BDE83840FFF7CFBC00BFC0
:10520800DD2C0020501C0020F72C0020DB2C002077
:10521800441C00209E1C0020D82C0020EF2C0020CD
:10522800022D0020D92C0020981C002038B5002120
:10523800022003F0D3F91C4B1C4900241A780C7087
:1052480002B938BD1A4A41F2707021461C701060CC
:10525800032003F0C3F9174B0420197881F00101EA
:1052680003F0BCF9144A154B12781B689A42E8D32C
:10527800134B1A78002AE4D0124A11780029E0D09A
:10528800114909780029DCD0104D012010491C7003
:105298002B7814700870002BD3D00E4B1878BDE80B
:1052A8003840FFF77BBC00BFDD2C0020CE2C00204F
:1052B800501C0020F72C0020DB2C0020441C002070
:1052C8009E1C0020D82C0020EF2C0020022D00204E
:1052D800D92C0020981C0020174A184B12781B78EC
:1052E8009A4221D3164B1A78F2B116480022164971
:1052F800007809681A70884216D3144B197899B146
:105308001349087880B11348007868B112484FF003
:10531800010C10B4114C1A7023780A7080F800C080
:105328001BB95DF8044B704770470D4B5DF8044B93
:105338001878FFF733BC00BFE52C0020A11C002023
:10534800F32C0020DB2C0020441C00209E1C002095
:10535800D82C0020EF2C0020D92C0020022D002072
:10536800981C00202DE9F04F282183B0C34804F091
:10537800F7FAC34804F0F6FBC24B1B78002B40F049
:105388000886C14B1B78002B40F0F685BF4B1B7875
:10539800002B40F007860A21BD4804F0E1FABD4918
:1053A80000230A220968B64804F0EAFB0121BA483A
:1053B80004F0D6FAB94900230A220968B04804F073
:1053C800DFFBAF4804F0CEFB0A21B54804F0C8FA69
:1053D800B44900230A220968A94804F0D1FB012135
:1053E800AD4804F0BDFAB04900230A220968A44870
:1053F80004F0C6FBA24804F0B5FB2121AB4804F039
:10540800AFFA9F4804F0AEFB1921A94804F0A8FAA6
:10541800A84900230A220968994804F0B1FB984872
:1054280004F0A0FB1621A44804F09AFA41F2707126
:10543800934804F08BFB924804F094FB19219F4891
:1054480004F08EFA9E490A22002309688C4804F069
:1054580097FB8B4804F086FB16219A4804F080FAE3
:1054680041F27071864804F071FB854804F07AFBBC
:105478001E21954804F074FA944B954C0221D3ED03
:10548800007A94ED007AF8EE677A7D48914D924E55
:1054980087EE870ADFF8A8B2DFF8A8A2DFF8A8929B
:1054A800DFF8A8828D4FB7EEC00A04F07DFB744880
:1054B80004F058FB27218A4804F052FA704804F097
:1054C80051FB1021874804F04BFA874B94ED007A82
:1054D80002211B786A4807EE903AF8EEE77A87EEE1
:1054E800270AB7EEC00A04F05FFB654804F03AFBF0
:1054F80017217E4804F034FA7D490A2200230978EE
:105508005F4804F03DFB5E4804F02CFB1621794807
:1055180004F026FA784B94ED007A0221D3ED007A54
:105528005748F8EE677A87EE870AB7EEC00A04F0A4
:105538003BFB534804F016FB1221704804F010FAA4
:105548006F4B4F481B6885FB0321DB17C3EBA11189
:1055580004F0FCFA4A4804F005FB1F21694804F0EE
:10556800FFF9694900230A220968454804F008FB45
:10557800434804F0F7FA1F21644804F0F1F964493C
:105588000A22002309683E4804F0FAFA3C4804F06D
:10559800E9FA19215F4804F0E3F95F4B38481978B4
:1055A80004F0D4FA364804F0DDFA29215B4804F007
:1055B800D7F9334804F0D6FA1B21594804F0D0F93A
:1055C800337894ED007A022107EE903A2C48F8EEF1
:1055D800E77A87EE270AB7EEC00A04F0E5FA28480A
:1055E80004F0C0FA22214F4804F0BAF9337894ED58
:1055F800006A022107EE103A4B4B2148B8EEC77AF1
:105608001B7807EE903AC6EE076AF8EEE77A87EE5F
:10561800A60AB7EEC00A04F0C7FA194804F0A2FABD
:105628004021424804F09CF9414B1548197804F090
:105638008DFA134804F096FA21213E4804F090F9B7
:105648003D4B94ED007A0221D3ED007A0C48F8EE38
:10565800677A87EE870AB7EEC00A04F0A5FA084809
:1056680004F080FA1221254804F07AF9334900231E
:105678000A220968A5FB01016AE000BF280800208A
:1056880080150020E62C00209F1C0020EE2C002016
:10569800A8080020501C0020B40800208027002003
:1056A800B8080020581C002084270020C4080020C7
:1056B800E808002090190020040900201C09002097
:1056C800981900203809002050090020641C002087
:1056D800F4190020D34D62109C1C0020F019002002
:1056E8007009002098090020961C0020AC090020B1
:1056F800A11C0020C4090020681C0020DC0900202F
:105708005C1C0020F009002088190020100A0020E5
:1057180094190020300A0020E72C00204C0A0020B1
:10572800780A0020940A00209D1C0020B80A002056
:10573800F72C0020FC0A0020601C0020541C0020CC
:10574800FC19002078190020E0190020CC1900204D
:10575800B948890904F014FAB74804F003FA21217A
:10576800B64804F0FDF8B64900230A220968B24891
:1057780004F006FAB04804F0F5F92121B14804F024
:10578800EFF8B1490A2200230968AB4804F0F8F998
:10579800A94804F0E7F92721AC4804F0E1F8A64845
:1057A80004F0E0F91321AA4804F0DAF8A94BA2485A
:1057B800197804F0CBF9A04804F0D4F91221A648CE
:1057C80004F0CEF8A54900230A2209689A4804F093
:1057D800D7F9994804F0C6F91021A14804F0C0F897
:1057E800A04900230A220968934804F0C9F992489D
:1057F80004F0B8F917219C4804F0B2F89B490A2232
:10580800002309688C4804F0BBF98B4804F0AAF916
:105818001521974804F0A4F8964B8748197804F0A6
:1058280095F9854804F09EF90D21934804F098F8FD
:10583800924B8148197804F089F97F4804F092F96D
:105848002E218F4804F08CF88E4B7B48197804F091
:105858007DF9794804F086F92E218B4804F080F808
:105868008A4B7548197804F071F9734804F07AF98D
:105878001B21874804F074F886490A220023097816
:105888006D4804F07DF96C4804F06CF921218248D8
:1058980004F066F8814B6848197804F057F96648AF
:1058A80004F060F91B217E4804F05AF87D49002372
:1058B8000A220978604804F063F901217A4804F063
:1058C8004FF87A490A22002309785B4804F058F90E
:1058D8000121774804F044F8574804F043F930218F
:1058E800744804F03DF8544804F03CF91821724813
:1058F80004F036F8714B5048197804F027F94E48EF
:1059080004F030F910216E4804F02AF86D4900239C
:105918000A220978484804F033F9474804F022F984
:105928000F21694804F01CF8684900230A22097805
:10593800414804F025F9404804F014F9112164485D
:1059480004F00EF8634900230A2209783A4804F063
:1059580017F9394804F006F924215F4804F000F8E3
:10596800354804F0FFF814215C4803F0F9FF5C495E
:1059780000230A220978304804F002F92E4804F07E
:10598800F1F81521574803F0EBFF574900230A2285
:105998000968A5FB01012848890904F0F1F826489F
:1059A80004F0E0F81221514803F0DAFF50490A22C6
:1059B80000230968204804F0E3F81F4804F0D2F8EF
:1059C8000C214C4803F0CCFF4B4B1B48197804F0D2
:1059D800BDF8194804F0C6F81B21484803F0C0FF79
:1059E80047490A2200230968134804F0C9F81248F5
:1059F80004F0B8F82521434803F0B2FF0E4804F03C
:105A0800B1F81121404803F0ABFF404B0A48197820
:105A180004F09CF8084804F0A5F815213C4803F068
:105A28009FFF3C4B0448197804F090F8024804F0B2
:105A380099F8242170E000BF80150020200B002079
:105A48008C190020440B002088270020680B0020B8
:105A5800900B0020012D0020A40B00204C1C0020DE
:105A6800B80B002008290020CC0B0020441C002083
:105A7800E40B0020E12C0020FC0B0020DE2C002091
:105A88000C0C0020941C00203C0C0020FE2C002054
:105A98006C0C0020A01C0020880C0020EB2C00209F
:105AA800AC0C00209B1C0020C80C00209A1C002075
:105AB800E8070020CC0C0020000D0020022D00205B
:105AC8001C0D0020991C0020300D0020921C002085
:105AD800400D0020981C0020540D00207C0D002053
:105AE800901C0020940D00207C270020AC0D002085
:105AF800481C0020C00D0020F22C0020D00D0020F2
:105B08006C190020EC0D0020140E0020A41C0020AD
:105B1800280E00208D1C0020C54803F021FFC54831
:105B280004F020F80A21C44803F01AFFC34BC14807
:105B3800197804F00BF8BF4804F014F81F21C04886
:105B480003F00EFFBF4900230A220968B948A5FBE4
:105B580001510025890904F013F8B64804F002F849
:105B68001721B94803F0FCFEB84900230A22096846
:105B7800B04804F005F8AF4803F0F4FF1A21B44820
:105B880003F0EEFEB34900230A220968A94803F08E
:105B9800F7FFA84803F0E6FF1521AF4803F0E0FE41
:105BA800AE490A2200230978A24803F0E9FFA14878
:105BB80003F0D8FF1121AA4803F0D2FE0C21A9480E
:105BC80003F0CEFE9B4803F0CDFF1521A64803F055
:105BD800C7FEA64B9748197803F0B8FF954803F01D
:105BE800C1FF2C21A24803F0BBFEA24B94ED007A22
:105BF8000221D3ED007A8F48F8EE677A8D4C87EE54
:105C0800870AB7EEC00A03F0CFFF8A4803F0AAFF5D
:105C18002021994803F0A4FE864803F0A3FF0E2133
:105C2800964803F09DFE964B8248197803F08EFF44
:105C3800804803F097FF1921924803F091FE92499A
:105C480000230A2209687B4803F09AFF794803F089
:105C580089FF1C218D4803F083FE8D490A22002309
:105C68000968744803F08CFF724803F07BFF222117
:105C7800884803F075FE6F4803F074FF16218648C4
:105C880003F06EFE854B6B48197803F05FFF694897
:105C980003F068FF1C21824803F062FE814900235B
:105CA8000A220968634803F06BFF624803F05AFF51
:105CB8001F217D4803F054FE7C4900230A2209680D
:105CC8005C4803F05DFF5B4803F04CFF1F217848F8
:105CD80003F046FE774900230A220968554803F075
:105CE8004FFF544803F03EFF1E21734803F038FE6F
:105CF800504803F037FF0F21704803F031FE704918
:105D080000230A2209784B4803F03AFF494803F078
:105D180029FF1C216B4803F023FE6B4900230A224C
:105D28000978444803F02CFF424803F01BFF362152
:105D3800664803F015FE664900230A2209783D48A3
:105D480003F01EFF3B4803F00DFF624B01930C214B
:105D5800614803F005FE0C216048EEB203F000FE36
:105D680000230A222946204603F00AFF0C215C483A
:105D780003F0F6FD204603F0F5FE0421594803F030
:105D8800EFFD022D00F00381032E00F0FE80012EAE
:105D980014BF554B554B1988204603F0D7FE2046B3
:105DA80003F0E0FE12215248013503F0D9FD00232B
:105DB8000A221BF8011B204603F0E2FE204603F0EE
:105DC800D1FE13214B4803F0CBFD00230A225AF8D9
:105DD800041B204603F0D4FE204603F0C3FE122124
:105DE800454803F0BDFD00230A2259F8041B20464C
:105DF80003F0C6FE204603F0B5FE15213F4803F028
:105E0800AFFD00230A2258F8041B204603F0B8FE11
:105E1800204603F0A7FE1021394803F0A1FD002316
:105E28000A2217F8011B204603F0AAFE6AE000BF09
:105E3800400E002080150020680E0020002D002054
:105E4800740E00203C1C0020940E0020DC19002059
:105E5800AC0E0020C8190020C80E00208F1C00209E
:105E6800E00E0020F40E0020040F0020971C0020F4
:105E78001C0F0020401C00204C0F0020700F002039
:105E8800FF2C0020800F0020701900209C0F00209C
:105E980074190020BC0F0020E00F0020D42C002033
:105EA800F80F00206419002018100020681900203D
:105EB80038100020A0190020581000207810002069
:105EC800951C002088100020F62C0020A810002027
:105ED800A31C0020A4190020E0100020F0100020CE
:105EE8000011002010110020841C0020861C0020B6
:105EF800181100202C1100204011002054110020FE
:105F08006C110020204603F02DFE1A212A4803F0C8
:105F180027FD019800230A2250F8041B019020460F
:105F280003F02EFE204603F01DFE042D7FF40FAF74
:105F38002221224803F014FD214803F013FE162104
:105F4800204803F00DFD204B1D48197803F0FEFD95
:105F58001B4803F007FE22211C4803F001FD1C49E1
:105F680000230A220968164803F00AFE144803B001
:105F7800BDE8F04F03F0F6BD1A21164803F0F0FC17
:105F88000F4803F0EFFDFFF706BA134B03E7134B77
:105F980001E71421124803F0E3FC094803F0E2FD8D
:105FA800FFF7F9B91F210F4803F0DAFC044803F0A2
:105FB800D9FDFFF7F0B900BF801100209C11002027
:105FC80080150020C0110020CC2C0020D811002002
:105FD8009C1900206C0800208A1C0020881C0020C6
:105FE80054080020880800202DE9F04F054E83B0A2
:105FF80003F090FC044C307003F08CFC3378C0B292
:10600800207003E0DF2C0020E22C0020FF2B00F2A0
:106018001881DFE813F0A0043104CA03BB03A50309
:10602800940391038E037F037A0377036803650360
:106038005E0357033B0335032D0327031E03150394
:106048000D03F402EC02E402DC02D602CB02BC022D
:10605800A102460240022D0626061F0615060B065B
:10606800840577057305F504F204EF04E704DF04FB
:10607800D9043706CA04580548053F052A051005FE
:106088000605FF04FD0470056D056A0561053B0200
:10609800560622021F0216020B020002ED014106FB
:1060A800E501E201DF01DC01D901C101940191019F
:1060B8007E0175016E0163010001160116011601CA
:1060C8001601160116011601160116011601160110
:1060D8001601160116011601160116011601160100
:1060E80016011601160116011601160116011601F0
:1060F80016011601160116011601160116011601E0
:1061080016011601160116011601160116011601CF
:1061180016011601160116011601160116011601BF
:1061280016011601160116011601160116011601AF
:10613800160116011601160116011601160116019F
:10614800160116011601160116011601160116018F
:10615800160116011601160116011601160116017F
:10616800160116011601160116011601160116016F
:10617800160116011601160116011601160116015F
:10618800160116011601160116011601160116014F
:10619800160116011601160116011601160116013F
:1061A800160116011601160116011601160116012F
:1061B800160116011601160116011601160116011F
:1061C800160116011601160116011601160116010F
:1061D80016011601160116011601160116011601FF
:1061E80016011601160116011601160116011601EF
:1061F80016011601160116011601160116011601DF
:106208001601160116011601160116011601600184
:1062180058012E011901AA4C4FF4C8452268A94912
:10622800A94B05FB00220968A848114422600260B6
:10623800B3FBF1F307EE903AA549F8EEE77AC1ED22
:10624800007A03B0BDE8F08FA24B002226281A80FE
:106258009A7000F0A986272800F04486002800F0EC
:106268002986DA7004219B4803B0BDE8F04F03F09B
:1062780077BB0521984803F073FB0121974803F089
:106288006FFB0121964803F06BFB964A9648002362
:1062980011680A22A0FB01019448890C03F070FCE4
:1062A8000121934803F05CFB0B21924803F058FB53
:1062B80001218F4803F054FB08218F4803F050FB5D
:1062C80001218E48D0E76828BBD14FF0E0238C4AE3
:1062D800C3F80C2DB5E70C218A48C5E78A4C4FF462
:1062E800C8457A492268784B05FB00220968754839
:1062F8009BE764227349744B714C00FB02F292E7EE
:1063080064227249704B00FB02F27F4C09686D48A9
:106318008BE77E4A84097E4B04211278C0F301156D
:1063280003F8224001FB023400F00302C0F38100AD
:106338006570A070E27084E7744B187081E7754D42
:106348000123DFF8A0814FF00009734FDFF804B292
:10635800DFF894A12B7002F017F93860FDF716FFEB
:1063680003F094FA012800F35E852878DBF804101E
:10637800D8F80020AAFB02326423920C03FB02F235
:10638800DBF804305B1A9A42FAD80028E3D103B04C
:10639800BDE8F04FFDF7FABE85B200283FF451AFD3
:1063A800002401210F2002F019F9962002F098F834
:1063B800013400210F2002F011F9962002F090F824
:1063C800A3B29D42EDD83CE7544B187039E7544BC3
:1063D800187036E7534B187033E7534B187030E793
:1063E800A0F10100514BB0FA80F04009187028E77D
:1063F8004F4B50491B78504CC8540B784878237041
:1064080003448A78C978DBB21A446370D3B25A1845
:10641800A370E27015E7464B1B78032B3FF611AFCC
:10642800DFE813F0B0046804A804A004404B1B780C
:10643800032B3FF606AFDFE813F07A0473046C040D
:10644800650403283FF6FDAEDFE810F087048204F8
:106458007D047804364B1870F3E6384B384A1B78BD
:106468001070002B7FF4EDAE334B364C0344364F9F
:1064780004F5807613F8015C2A460021384601F0BD
:1064880031F904F8010FB442F6D1DAE603B0BDE8F9
:10649800F04FFDF783BC64232C4A00FB03F3136021
:1064A800CFE601282A4B0CBF012200221A703FF4C4
:1064B800C8AE062003B0BDE8F04F03F065BD00BFCD
:1064C800882700208027002040420F0084270020D2
:1064D800F41900208C280020A4020020980600202F
:1064E800AC0200207C15002083DE1B4380150020B1
:1064F800A80C0020B0020020BC020020C802002026
:106508000400FA05CC0200208C190020A31C0020EE
:106518008C270020EA2C0020A42C0020F12C00203D
:10652800981C0020921C0020991C0020022D00209D
:10653800F62C0020FC190020F8190020012D00205D
:10654800951C0020432B0020E8240020701900200F
:10655800FF2C0020001000E0A0F10101974B984AA1
:10656800B1FA81F11B784909117053B9954B1B7821
:106578003BB9954B1B78002B3FF463AE411E18BF07
:106588000121042003B0BDE8F04F02F027B801282C
:106598008E4B4FF00A000BBF01220022032102217B
:1065A8001A7003B0BDE8F04F02F054B80128884BC8
:1065B8000CBF012200221A707FF443AE854B18707D
:1065C8003FE66423844A00FB03F3136039E6A0F135
:1065D8000100824BB0FA80F04009187031E6A0F152
:1065E80001007F4BB0FA80F04009187029E6A0F14D
:1065F80001007C4BB0FA80F04009187021E60128B0
:10660800794B7A4C0CBF012200221B7878487949D3
:10661800E2544FF0000302700B707FF412AE764C18
:1066280076487749774A237003700B70137008E631
:106638006D4B0024744A75491B780C70D05400E6E1
:10664800694B00EB8000724A1978400042F821003B
:10665800F7E5654B00EB80006E4A1978400042F878
:106668002100EEE564236C4A00FB03F31360E8E5C0
:10667800A0F10100574BB0FA80F040091870E0E52E
:1066880066490022664B08601A70DAE50128654BF6
:106698000CBF012200221A70634B644A40F08F83BA
:1066A80000211B781170002B00F09083604B1B7841
:1066B800042B00F28B83DFE813F086038903980329
:1066C80093038E034FF47A735A4A00FB03F3136063
:1066D800B7E54FF47A73584A00FB03F31360B0E54B
:1066E800564B1870ADE507EE900A554A554BF8EE33
:1066F800E77A92ED007A67EE877AFCEEE77AC3EDE7
:10670800007A9EE5504B18709BE503B0BDE8F04F4A
:10671800FEF728BE07EE900A494A4C4BF8EEE77A96
:1067280092ED007A67EE877AFCEEE77AC3ED007A9D
:1067380087E5474B187084E5464B187081E5294B6F
:106748001B78002B00F09D83434B1A7E012A40F2F0
:10675800628472B65B6962B640480421036083E5CF
:1067680007EE900A364A3E490023F8EEE77A92EDA2
:10677800007A08603B4A67EE877A3B4828490360FD
:10678800FCEEE77A0B70C2ED007A5AE5002840F07B
:1067980055830A4C01210B4A0B4B2070117018705D
:1067A80003B0BDE8F04FFDF781BB304B3049314AAB
:1067B8000870B3FBF0F3136043E500BFE62C00203C
:1067C800F72C00209F1C0020EE2C0020941C002099
:1067D800DE2C0020E12C00206C190020F22C002077
:1067E800002D0020A41C0020F62C0020A428002046
:1067F800D42C0020D72C0020D52C0020D22C00200F
:10680800D02C0020CB2C0020F0190020D12C002007
:10681800CC190020E01900203C1C0020441C00205A
:10682800DB2C0020012D0020022D00209E1C0020C2
:10683800F12C00205C1C0020541C00209D1C002012
:10684800F4190020601C00209C1C0020681C0020FB
:10685800A11C0020961C0020EC28002028290020DC
:106868004C1C002008290020E828002040420F0086
:10687800901C00207C270020AD4C0127AD48002348
:10688800AD4907702668AD480C680660AC48AD4D48
:106898000460AD482A780370AC4882EA0704AC4922
:1068A8000370AC4809780360AB480370AB480470C8
:1068B800AB480370AB480370AB48037021B1AB4BD6
:1068C8001B78FF2B00F0668242B10023A84CA94830
:1068D800A949AA4A237003700B701370A84B1B7840
:1068E80043B172B6A74A0023536162B6A649A74AC4
:1068F8000B601360A64B1B78002B00F0AE820023C0
:10690800A4480122A44C0360A448A5490370A548E3
:1069180024680370A44809780270A4480370A44846
:106928000370A4480370A44BA4481A70046000299B
:1069380040F05083A24B1B78002B40F05983A14BA9
:106948001B78002B3FF47DAC9F4B187803B0BDE853
:10695800F04FFEF723B99D4B002176489C4A1B78DF
:1069680001701170002B40F096829A4B1B78002B17
:1069780040F08C82864B1B78002B00F03F82914AB6
:1069880000238C488C49127803700B70002A00F0A1
:106998003582914B1B78042B00F23082DFE813F02C
:1069A8003F022E023A0235022A0207EE900A8B4A6B
:1069B8008B4BF8EEE77A92ED007A67EE877AFCEE79
:1069C800E77AC3ED007A3CE464235D4A00FB03F3F5
:1069D800136036E4A0F10100824BB0FA80F0400960
:1069E80018702EE4A0F101007F4BB0FA80F0400946
:1069F800187026E47D4B187023E47D4B187020E452
:106A0800A0F101006E4BB0FA80F04009187018E44C
:106A1800784C64E464227849784B794C00FB02F2A4
:106A280001E464227749754B00FB02F2764C096851
:106A38007148FFF7FABB75490022684D0B6895ED60
:106A4800007A03EB00235348534C07EE903A026058
:106A58005248F8EE677A0B60027067EE877AFCEEB0
:106A6800E77AC4ED007AFFF7ECBB0002684B5B4A9B
:106A780007EE900AD2ED006AB8EEE77AD3ED007A15
:106A8800F8EE677AE7EE267AFCEEE77AC3ED007A4D
:106A9800FFF7D7BB5F4A4FF4C841136801FB0033C7
:106AA8001360FFF7CEBB07EE900A4C4A584BF8EE3E
:106AB800E77A92ED007A67EE877AFCEEE77AC3ED23
:106AC800007AFFF7BEBBA0F10100534BB0FA80F08B
:106AD80040091870FFF7B5BBA0F101004F4BB0FAA1
:106AE80080F040091870FFF7ACBB454CFFF794BB2A
:106AF800454CFFF7F4BB4A4CFFF78EBB494B187067
:106B0800FFF79FBB0128264B0CBF012200221A70F9
:106B18007FF497AB444B00221A70FFF792BB6422B4
:106B28003549364B3E4C00FB02F2FFF77CBB00BFF9
:106B3800A42C0020E92C0020A82C00202C290020BF
:106B480090280020D42C0020E82C0020E52C0020E0
:106B5800002D002074270020D12C0020DA2C0020E2
:106B6800D32C0020D72C0020D62C0020A31C0020DA
:106B7800D52C0020D22C0020D02C0020CB2C00209B
:106B8800A41C0020EC28002028290020242900200B
:106B9800012D0020E828002008290020DB2C0020F7
:106BA800FE2C0020DC2C0020931C0020D82C002078
:106BB800D92C00209E1C0020EF2C002078270020D4
:106BC800EB2C0020022D0020991C0020EE2C002028
:106BD800F32C00208E1C0020F12C0020F41900203A
:106BE800641C0020CC2C00208D1C00209A1C002046
:106BF8009B1C0020881900208027002040420F009D
:106C08009819002084270020901900204C1C00208F
:106C1800401C00203C1C0020971C0020E72C002072
:106C280094190020A01C0020A21C00206422B14955
:106C3800B14B00FB02F2B14C0968B148FFF7F5BA55
